{
	"contracts/Variables.sol": {
		"Variables": {
			"abi": [
				{
					"inputs": [],
					"name": "addElementToTheMapping",
					"outputs": [],
					"stateMutability": "nonpayable",
					"type": "function"
				},
				{
					"inputs": [],
					"name": "contractAddress",
					"outputs": [
						{
							"internalType": "address",
							"name": "",
							"type": "address"
						}
					],
					"stateMutability": "view",
					"type": "function"
				},
				{
					"inputs": [],
					"name": "example",
					"outputs": [
						{
							"internalType": "uint256",
							"name": "",
							"type": "uint256"
						}
					],
					"stateMutability": "view",
					"type": "function"
				},
				{
					"inputs": [
						{
							"internalType": "uint256",
							"name": "",
							"type": "uint256"
						}
					],
					"name": "letters",
					"outputs": [
						{
							"internalType": "string",
							"name": "",
							"type": "string"
						}
					],
					"stateMutability": "view",
					"type": "function"
				},
				{
					"inputs": [],
					"name": "name",
					"outputs": [
						{
							"internalType": "string",
							"name": "",
							"type": "string"
						}
					],
					"stateMutability": "view",
					"type": "function"
				},
				{
					"inputs": [
						{
							"internalType": "string",
							"name": "",
							"type": "string"
						}
					],
					"name": "nameAndNumber",
					"outputs": [
						{
							"internalType": "uint256",
							"name": "",
							"type": "uint256"
						}
					],
					"stateMutability": "view",
					"type": "function"
				},
				{
					"inputs": [
						{
							"internalType": "uint256",
							"name": "",
							"type": "uint256"
						}
					],
					"name": "numbers",
					"outputs": [
						{
							"internalType": "uint256",
							"name": "",
							"type": "uint256"
						}
					],
					"stateMutability": "view",
					"type": "function"
				},
				{
					"inputs": [],
					"name": "ten",
					"outputs": [
						{
							"internalType": "int256",
							"name": "",
							"type": "int256"
						}
					],
					"stateMutability": "view",
					"type": "function"
				},
				{
					"inputs": [],
					"name": "trueOrFalse",
					"outputs": [
						{
							"internalType": "bool",
							"name": "",
							"type": "bool"
						}
					],
					"stateMutability": "view",
					"type": "function"
				},
				{
					"inputs": [],
					"name": "twenty",
					"outputs": [
						{
							"internalType": "uint256",
							"name": "",
							"type": "uint256"
						}
					],
					"stateMutability": "view",
					"type": "function"
				}
			],
			"devdoc": {
				"kind": "dev",
				"methods": {},
				"version": 1
			},
			"evm": {
				"assembly": "    /* \"contracts/Variables.sol\":72:1264  contract Variables{... */\n  mstore(0x40, 0x80)\n    /* \"contracts/Variables.sol\":721:723  20 */\n  0x14\n    /* \"contracts/Variables.sol\":697:723  uint256 public twenty = 20 */\n  0x02\n  sstore\n    /* \"contracts/Variables.sol\":752:756  1000 */\n  0x03e8\n    /* \"contracts/Variables.sol\":730:756  uint public example = 1000 */\n  0x03\n  sstore\n    /* \"contracts/Variables.sol\":836:840  this */\n  address\n    /* \"contracts/Variables.sol\":795:841  address public contractAddress = address(this) */\n  0x05\n  exp(0x0100, 0x00)\n  dup2\n  sload\n  dup2\n  0xffffffffffffffffffffffffffffffffffffffff\n  mul\n  not\n  and\n  swap1\n  dup4\n  0xffffffffffffffffffffffffffffffffffffffff\n  and\n  mul\n  or\n  swap1\n  sstore\n  pop\n    /* \"contracts/Variables.sol\":908:943  uint[] public numbers = [1,2,3,4,5] */\n  mload(0x40)\n  dup1\n  0xa0\n  add\n  0x40\n  mstore\n  dup1\n    /* \"contracts/Variables.sol\":933:934  1 */\n  0x01\n    /* \"contracts/Variables.sol\":908:943  uint[] public numbers = [1,2,3,4,5] */\n  0xff\n  and\n  dup2\n  mstore\n  0x20\n  add\n    /* \"contracts/Variables.sol\":935:936  2 */\n  0x02\n    /* \"contracts/Variables.sol\":908:943  uint[] public numbers = [1,2,3,4,5] */\n  0xff\n  and\n  dup2\n  mstore\n  0x20\n  add\n    /* \"contracts/Variables.sol\":937:938  3 */\n  0x03\n    /* \"contracts/Variables.sol\":908:943  uint[] public numbers = [1,2,3,4,5] */\n  0xff\n  and\n  dup2\n  mstore\n  0x20\n  add\n    /* \"contracts/Variables.sol\":939:940  4 */\n  0x04\n    /* \"contracts/Variables.sol\":908:943  uint[] public numbers = [1,2,3,4,5] */\n  0xff\n  and\n  dup2\n  mstore\n  0x20\n  add\n    /* \"contracts/Variables.sol\":941:942  5 */\n  0x05\n    /* \"contracts/Variables.sol\":908:943  uint[] public numbers = [1,2,3,4,5] */\n  0xff\n  and\n  dup2\n  mstore\n  pop\n  0x06\n  swap1\n  0x05\n  tag_1\n  swap3\n  swap2\n  swap1\n  tag_2\n  jump\t// in\ntag_1:\n  pop\n    /* \"contracts/Variables.sol\":950:993  string[] public letters = [\"a\",\"b\",\"c\",\"d\"] */\n  mload(0x40)\n  dup1\n  0x80\n  add\n  0x40\n  mstore\n  dup1\n  mload(0x40)\n  dup1\n  0x40\n  add\n  0x40\n  mstore\n  dup1\n  0x01\n  dup2\n  mstore\n  0x20\n  add\n  0x6100000000000000000000000000000000000000000000000000000000000000\n  dup2\n  mstore\n  pop\n  dup2\n  mstore\n  0x20\n  add\n  mload(0x40)\n  dup1\n  0x40\n  add\n  0x40\n  mstore\n  dup1\n  0x01\n  dup2\n  mstore\n  0x20\n  add\n  0x6200000000000000000000000000000000000000000000000000000000000000\n  dup2\n  mstore\n  pop\n  dup2\n  mstore\n  0x20\n  add\n  mload(0x40)\n  dup1\n  0x40\n  add\n  0x40\n  mstore\n  dup1\n  0x01\n  dup2\n  mstore\n  0x20\n  add\n  0x6300000000000000000000000000000000000000000000000000000000000000\n  dup2\n  mstore\n  pop\n  dup2\n  mstore\n  0x20\n  add\n  mload(0x40)\n  dup1\n  0x40\n  add\n  0x40\n  mstore\n  dup1\n  0x01\n  dup2\n  mstore\n  0x20\n  add\n  0x6400000000000000000000000000000000000000000000000000000000000000\n  dup2\n  mstore\n  pop\n  dup2\n  mstore\n  pop\n  0x07\n  swap1\n  0x04\n  tag_3\n  swap3\n  swap2\n  swap1\n  tag_4\n  jump\t// in\ntag_3:\n  pop\n    /* \"contracts/Variables.sol\":72:1264  contract Variables{... */\n  callvalue\n  dup1\n  iszero\n  tag_5\n  jumpi\n  0x00\n  dup1\n  revert\ntag_5:\n  pop\n  jump(tag_6)\ntag_2:\n  dup3\n  dup1\n  sload\n  dup3\n  dup3\n  sstore\n  swap1\n  0x00\n  mstore\n  keccak256(0x00, 0x20)\n  swap1\n  dup2\n  add\n  swap3\n  dup3\n  iszero\n  tag_7\n  jumpi\n  swap2\n  0x20\n  mul\n  dup3\n  add\ntag_8:\n  dup3\n  dup2\n  gt\n  iszero\n  tag_9\n  jumpi\n  dup3\n  mload\n  dup3\n  swap1\n  0xff\n  and\n  swap1\n  sstore\n  swap2\n  0x20\n  add\n  swap2\n  swap1\n  0x01\n  add\n  swap1\n  jump(tag_8)\ntag_9:\ntag_7:\n  pop\n  swap1\n  pop\n  tag_10\n  swap2\n  swap1\n  tag_11\n  jump\t// in\ntag_10:\n  pop\n  swap1\n  jump\t// out\ntag_4:\n  dup3\n  dup1\n  sload\n  dup3\n  dup3\n  sstore\n  swap1\n  0x00\n  mstore\n  keccak256(0x00, 0x20)\n  swap1\n  dup2\n  add\n  swap3\n  dup3\n  iszero\n  tag_12\n  jumpi\n  swap2\n  0x20\n  mul\n  dup3\n  add\ntag_13:\n  dup3\n  dup2\n  gt\n  iszero\n  tag_14\n  jumpi\n  dup3\n  mload\n  dup3\n  swap1\n  dup1\n  mload\n  swap1\n  0x20\n  add\n  swap1\n  tag_15\n  swap3\n  swap2\n  swap1\n  tag_16\n  jump\t// in\ntag_15:\n  pop\n  swap2\n  0x20\n  add\n  swap2\n  swap1\n  0x01\n  add\n  swap1\n  jump(tag_13)\ntag_14:\ntag_12:\n  pop\n  swap1\n  pop\n  tag_17\n  swap2\n  swap1\n  tag_18\n  jump\t// in\ntag_17:\n  pop\n  swap1\n  jump\t// out\ntag_11:\ntag_19:\n  dup1\n  dup3\n  gt\n  iszero\n  tag_20\n  jumpi\n  0x00\n  dup2\n  0x00\n  swap1\n  sstore\n  pop\n  0x01\n  add\n  jump(tag_19)\ntag_20:\n  pop\n  swap1\n  jump\t// out\ntag_16:\n  dup3\n  dup1\n  sload\n  tag_21\n  swap1\n  tag_22\n  jump\t// in\ntag_21:\n  swap1\n  0x00\n  mstore\n  keccak256(0x00, 0x20)\n  swap1\n  0x1f\n  add\n  0x20\n  swap1\n  div\n  dup2\n  add\n  swap3\n  dup3\n  tag_24\n  jumpi\n  0x00\n  dup6\n  sstore\n  jump(tag_23)\ntag_24:\n  dup3\n  0x1f\n  lt\n  tag_25\n  jumpi\n  dup1\n  mload\n  not(0xff)\n  and\n  dup4\n  dup1\n  add\n  or\n  dup6\n  sstore\n  jump(tag_23)\ntag_25:\n  dup3\n  dup1\n  add\n  0x01\n  add\n  dup6\n  sstore\n  dup3\n  iszero\n  tag_23\n  jumpi\n  swap2\n  dup3\n  add\ntag_26:\n  dup3\n  dup2\n  gt\n  iszero\n  tag_27\n  jumpi\n  dup3\n  mload\n  dup3\n  sstore\n  swap2\n  0x20\n  add\n  swap2\n  swap1\n  0x01\n  add\n  swap1\n  jump(tag_26)\ntag_27:\ntag_23:\n  pop\n  swap1\n  pop\n  tag_28\n  swap2\n  swap1\n  tag_11\n  jump\t// in\ntag_28:\n  pop\n  swap1\n  jump\t// out\ntag_18:\ntag_29:\n  dup1\n  dup3\n  gt\n  iszero\n  tag_30\n  jumpi\n  0x00\n  dup2\n  dup2\n  tag_31\n  swap2\n  swap1\n  tag_32\n  jump\t// in\ntag_31:\n  pop\n  0x01\n  add\n  jump(tag_29)\ntag_30:\n  pop\n  swap1\n  jump\t// out\ntag_32:\n  pop\n  dup1\n  sload\n  tag_33\n  swap1\n  tag_22\n  jump\t// in\ntag_33:\n  0x00\n  dup3\n  sstore\n  dup1\n  0x1f\n  lt\n  tag_35\n  jumpi\n  pop\n  jump(tag_34)\ntag_35:\n  0x1f\n  add\n  0x20\n  swap1\n  div\n  swap1\n  0x00\n  mstore\n  keccak256(0x00, 0x20)\n  swap1\n  dup2\n  add\n  swap1\n  tag_36\n  swap2\n  swap1\n  tag_11\n  jump\t// in\ntag_36:\ntag_34:\n  pop\n  jump\t// out\n    /* \"#utility.yul\":7:327   */\ntag_22:\n    /* \"#utility.yul\":51:57   */\n  0x00\n    /* \"#utility.yul\":88:89   */\n  0x02\n    /* \"#utility.yul\":82:86   */\n  dup3\n    /* \"#utility.yul\":78:90   */\n  div\n    /* \"#utility.yul\":68:90   */\n  swap1\n  pop\n    /* \"#utility.yul\":135:136   */\n  0x01\n    /* \"#utility.yul\":129:133   */\n  dup3\n    /* \"#utility.yul\":125:137   */\n  and\n    /* \"#utility.yul\":156:174   */\n  dup1\n    /* \"#utility.yul\":146:227   */\n  tag_39\n  jumpi\n    /* \"#utility.yul\":212:216   */\n  0x7f\n    /* \"#utility.yul\":204:210   */\n  dup3\n    /* \"#utility.yul\":200:217   */\n  and\n    /* \"#utility.yul\":190:217   */\n  swap2\n  pop\n    /* \"#utility.yul\":146:227   */\ntag_39:\n    /* \"#utility.yul\":274:276   */\n  0x20\n    /* \"#utility.yul\":266:272   */\n  dup3\n    /* \"#utility.yul\":263:277   */\n  lt\n    /* \"#utility.yul\":243:261   */\n  dup2\n    /* \"#utility.yul\":240:278   */\n  eq\n    /* \"#utility.yul\":237:321   */\n  iszero\n  tag_40\n  jumpi\n    /* \"#utility.yul\":293:311   */\n  tag_41\n  tag_42\n  jump\t// in\ntag_41:\n    /* \"#utility.yul\":237:321   */\ntag_40:\n    /* \"#utility.yul\":58:327   */\n  pop\n    /* \"#utility.yul\":7:327   */\n  swap2\n  swap1\n  pop\n  jump\t// out\n    /* \"#utility.yul\":333:513   */\ntag_42:\n    /* \"#utility.yul\":381:458   */\n  0x4e487b7100000000000000000000000000000000000000000000000000000000\n    /* \"#utility.yul\":378:379   */\n  0x00\n    /* \"#utility.yul\":371:459   */\n  mstore\n    /* \"#utility.yul\":478:482   */\n  0x22\n    /* \"#utility.yul\":475:476   */\n  0x04\n    /* \"#utility.yul\":468:483   */\n  mstore\n    /* \"#utility.yul\":502:506   */\n  0x24\n    /* \"#utility.yul\":499:500   */\n  0x00\n    /* \"#utility.yul\":492:507   */\n  revert\n    /* \"contracts/Variables.sol\":72:1264  contract Variables{... */\ntag_6:\n  dataSize(sub_0)\n  dup1\n  dataOffset(sub_0)\n  0x00\n  codecopy\n  0x00\n  return\nstop\n\nsub_0: assembly {\n        /* \"contracts/Variables.sol\":72:1264  contract Variables{... */\n      mstore(0x40, 0x80)\n      callvalue\n      dup1\n      iszero\n      tag_1\n      jumpi\n      0x00\n      dup1\n      revert\n    tag_1:\n      pop\n      jumpi(tag_2, lt(calldatasize, 0x04))\n      shr(0xe0, calldataload(0x00))\n      dup1\n      0xa2a0e4c3\n      gt\n      tag_13\n      jumpi\n      dup1\n      0xa2a0e4c3\n      eq\n      tag_8\n      jumpi\n      dup1\n      0xd39fa233\n      eq\n      tag_9\n      jumpi\n      dup1\n      0xe13a9a32\n      eq\n      tag_10\n      jumpi\n      dup1\n      0xf6b4dfb4\n      eq\n      tag_11\n      jumpi\n      dup1\n      0xf8af9dd2\n      eq\n      tag_12\n      jumpi\n      jump(tag_2)\n    tag_13:\n      dup1\n      0x06fdde03\n      eq\n      tag_3\n      jumpi\n      dup1\n      0x0d8e8ff0\n      eq\n      tag_4\n      jumpi\n      dup1\n      0x3888624b\n      eq\n      tag_5\n      jumpi\n      dup1\n      0x54353f2f\n      eq\n      tag_6\n      jumpi\n      dup1\n      0x643ceff9\n      eq\n      tag_7\n      jumpi\n    tag_2:\n      0x00\n      dup1\n      revert\n        /* \"contracts/Variables.sol\":763:781  string public name */\n    tag_3:\n      tag_14\n      tag_15\n      jump\t// in\n    tag_14:\n      mload(0x40)\n      tag_16\n      swap2\n      swap1\n      tag_17\n      jump\t// in\n    tag_16:\n      mload(0x40)\n      dup1\n      swap2\n      sub\n      swap1\n      return\n        /* \"contracts/Variables.sol\":1020:1064  mapping(string => uint) public nameAndNumber */\n    tag_4:\n      tag_18\n      0x04\n      dup1\n      calldatasize\n      sub\n      dup2\n      add\n      swap1\n      tag_19\n      swap2\n      swap1\n      tag_20\n      jump\t// in\n    tag_19:\n      tag_21\n      jump\t// in\n    tag_18:\n      mload(0x40)\n      tag_22\n      swap2\n      swap1\n      tag_23\n      jump\t// in\n    tag_22:\n      mload(0x40)\n      dup1\n      swap2\n      sub\n      swap1\n      return\n        /* \"contracts/Variables.sol\":643:666  bool public trueOrFalse */\n    tag_5:\n      tag_24\n      tag_25\n      jump\t// in\n    tag_24:\n      mload(0x40)\n      tag_26\n      swap2\n      swap1\n      tag_27\n      jump\t// in\n    tag_26:\n      mload(0x40)\n      dup1\n      swap2\n      sub\n      swap1\n      return\n        /* \"contracts/Variables.sol\":730:756  uint public example = 1000 */\n    tag_6:\n      tag_28\n      tag_29\n      jump\t// in\n    tag_28:\n      mload(0x40)\n      tag_30\n      swap2\n      swap1\n      tag_23\n      jump\t// in\n    tag_30:\n      mload(0x40)\n      dup1\n      swap2\n      sub\n      swap1\n      return\n        /* \"contracts/Variables.sol\":673:690  int256 public ten */\n    tag_7:\n      tag_31\n      tag_32\n      jump\t// in\n    tag_31:\n      mload(0x40)\n      tag_33\n      swap2\n      swap1\n      tag_34\n      jump\t// in\n    tag_33:\n      mload(0x40)\n      dup1\n      swap2\n      sub\n      swap1\n      return\n        /* \"contracts/Variables.sol\":950:993  string[] public letters = [\"a\",\"b\",\"c\",\"d\"] */\n    tag_8:\n      tag_35\n      0x04\n      dup1\n      calldatasize\n      sub\n      dup2\n      add\n      swap1\n      tag_36\n      swap2\n      swap1\n      tag_37\n      jump\t// in\n    tag_36:\n      tag_38\n      jump\t// in\n    tag_35:\n      mload(0x40)\n      tag_39\n      swap2\n      swap1\n      tag_17\n      jump\t// in\n    tag_39:\n      mload(0x40)\n      dup1\n      swap2\n      sub\n      swap1\n      return\n        /* \"contracts/Variables.sol\":908:943  uint[] public numbers = [1,2,3,4,5] */\n    tag_9:\n      tag_40\n      0x04\n      dup1\n      calldatasize\n      sub\n      dup2\n      add\n      swap1\n      tag_41\n      swap2\n      swap1\n      tag_37\n      jump\t// in\n    tag_41:\n      tag_42\n      jump\t// in\n    tag_40:\n      mload(0x40)\n      tag_43\n      swap2\n      swap1\n      tag_23\n      jump\t// in\n    tag_43:\n      mload(0x40)\n      dup1\n      swap2\n      sub\n      swap1\n      return\n        /* \"contracts/Variables.sol\":1072:1203  function addElementToTheMapping() public {... */\n    tag_10:\n      tag_44\n      tag_45\n      jump\t// in\n    tag_44:\n      stop\n        /* \"contracts/Variables.sol\":795:841  address public contractAddress = address(this) */\n    tag_11:\n      tag_46\n      tag_47\n      jump\t// in\n    tag_46:\n      mload(0x40)\n      tag_48\n      swap2\n      swap1\n      tag_49\n      jump\t// in\n    tag_48:\n      mload(0x40)\n      dup1\n      swap2\n      sub\n      swap1\n      return\n        /* \"contracts/Variables.sol\":697:723  uint256 public twenty = 20 */\n    tag_12:\n      tag_50\n      tag_51\n      jump\t// in\n    tag_50:\n      mload(0x40)\n      tag_52\n      swap2\n      swap1\n      tag_23\n      jump\t// in\n    tag_52:\n      mload(0x40)\n      dup1\n      swap2\n      sub\n      swap1\n      return\n        /* \"contracts/Variables.sol\":763:781  string public name */\n    tag_15:\n      0x04\n      dup1\n      sload\n      tag_53\n      swap1\n      tag_54\n      jump\t// in\n    tag_53:\n      dup1\n      0x1f\n      add\n      0x20\n      dup1\n      swap2\n      div\n      mul\n      0x20\n      add\n      mload(0x40)\n      swap1\n      dup2\n      add\n      0x40\n      mstore\n      dup1\n      swap3\n      swap2\n      swap1\n      dup2\n      dup2\n      mstore\n      0x20\n      add\n      dup3\n      dup1\n      sload\n      tag_55\n      swap1\n      tag_54\n      jump\t// in\n    tag_55:\n      dup1\n      iszero\n      tag_56\n      jumpi\n      dup1\n      0x1f\n      lt\n      tag_57\n      jumpi\n      0x0100\n      dup1\n      dup4\n      sload\n      div\n      mul\n      dup4\n      mstore\n      swap2\n      0x20\n      add\n      swap2\n      jump(tag_56)\n    tag_57:\n      dup3\n      add\n      swap2\n      swap1\n      0x00\n      mstore\n      keccak256(0x00, 0x20)\n      swap1\n    tag_58:\n      dup2\n      sload\n      dup2\n      mstore\n      swap1\n      0x01\n      add\n      swap1\n      0x20\n      add\n      dup1\n      dup4\n      gt\n      tag_58\n      jumpi\n      dup3\n      swap1\n      sub\n      0x1f\n      and\n      dup3\n      add\n      swap2\n    tag_56:\n      pop\n      pop\n      pop\n      pop\n      pop\n      dup2\n      jump\t// out\n        /* \"contracts/Variables.sol\":1020:1064  mapping(string => uint) public nameAndNumber */\n    tag_21:\n      0x08\n      dup2\n      dup1\n      mload\n      0x20\n      dup2\n      add\n      dup3\n      add\n      dup1\n      mload\n      dup5\n      dup3\n      mstore\n      0x20\n      dup4\n      add\n      0x20\n      dup6\n      add\n      keccak256\n      dup2\n      dup4\n      mstore\n      dup1\n      swap6\n      pop\n      pop\n      pop\n      pop\n      pop\n      pop\n      0x00\n      swap2\n      pop\n      swap1\n      pop\n      sload\n      dup2\n      jump\t// out\n        /* \"contracts/Variables.sol\":643:666  bool public trueOrFalse */\n    tag_25:\n      0x00\n      dup1\n      sload\n      swap1\n      0x0100\n      exp\n      swap1\n      div\n      0xff\n      and\n      dup2\n      jump\t// out\n        /* \"contracts/Variables.sol\":730:756  uint public example = 1000 */\n    tag_29:\n      sload(0x03)\n      dup2\n      jump\t// out\n        /* \"contracts/Variables.sol\":673:690  int256 public ten */\n    tag_32:\n      sload(0x01)\n      dup2\n      jump\t// out\n        /* \"contracts/Variables.sol\":950:993  string[] public letters = [\"a\",\"b\",\"c\",\"d\"] */\n    tag_38:\n      0x07\n      dup2\n      dup2\n      sload\n      dup2\n      lt\n      tag_59\n      jumpi\n      0x00\n      dup1\n      revert\n    tag_59:\n      swap1\n      0x00\n      mstore\n      keccak256(0x00, 0x20)\n      add\n      0x00\n      swap2\n      pop\n      swap1\n      pop\n      dup1\n      sload\n      tag_61\n      swap1\n      tag_54\n      jump\t// in\n    tag_61:\n      dup1\n      0x1f\n      add\n      0x20\n      dup1\n      swap2\n      div\n      mul\n      0x20\n      add\n      mload(0x40)\n      swap1\n      dup2\n      add\n      0x40\n      mstore\n      dup1\n      swap3\n      swap2\n      swap1\n      dup2\n      dup2\n      mstore\n      0x20\n      add\n      dup3\n      dup1\n      sload\n      tag_62\n      swap1\n      tag_54\n      jump\t// in\n    tag_62:\n      dup1\n      iszero\n      tag_63\n      jumpi\n      dup1\n      0x1f\n      lt\n      tag_64\n      jumpi\n      0x0100\n      dup1\n      dup4\n      sload\n      div\n      mul\n      dup4\n      mstore\n      swap2\n      0x20\n      add\n      swap2\n      jump(tag_63)\n    tag_64:\n      dup3\n      add\n      swap2\n      swap1\n      0x00\n      mstore\n      keccak256(0x00, 0x20)\n      swap1\n    tag_65:\n      dup2\n      sload\n      dup2\n      mstore\n      swap1\n      0x01\n      add\n      swap1\n      0x20\n      add\n      dup1\n      dup4\n      gt\n      tag_65\n      jumpi\n      dup3\n      swap1\n      sub\n      0x1f\n      and\n      dup3\n      add\n      swap2\n    tag_63:\n      pop\n      pop\n      pop\n      pop\n      pop\n      dup2\n      jump\t// out\n        /* \"contracts/Variables.sol\":908:943  uint[] public numbers = [1,2,3,4,5] */\n    tag_42:\n      0x06\n      dup2\n      dup2\n      sload\n      dup2\n      lt\n      tag_66\n      jumpi\n      0x00\n      dup1\n      revert\n    tag_66:\n      swap1\n      0x00\n      mstore\n      keccak256(0x00, 0x20)\n      add\n      0x00\n      swap2\n      pop\n      swap1\n      pop\n      sload\n      dup2\n      jump\t// out\n        /* \"contracts/Variables.sol\":1072:1203  function addElementToTheMapping() public {... */\n    tag_45:\n        /* \"contracts/Variables.sol\":1157:1159  24 */\n      0x18\n        /* \"contracts/Variables.sol\":1132:1145  nameAndNumber */\n      0x08\n        /* \"contracts/Variables.sol\":1132:1154  nameAndNumber[\"Eyyub\"] */\n      mload(0x40)\n      tag_69\n      swap1\n      tag_70\n      jump\t// in\n    tag_69:\n      swap1\n      dup2\n      mstore\n      0x20\n      add\n      mload(0x40)\n      dup1\n      swap2\n      sub\n      swap1\n      keccak256\n        /* \"contracts/Variables.sol\":1132:1159  nameAndNumber[\"Eyyub\"] = 24 */\n      dup2\n      swap1\n      sstore\n      pop\n        /* \"contracts/Variables.sol\":1194:1195  2 */\n      0x02\n        /* \"contracts/Variables.sol\":1170:1183  nameAndNumber */\n      0x08\n        /* \"contracts/Variables.sol\":1170:1191  nameAndNumber[\"Baby\"] */\n      mload(0x40)\n      tag_71\n      swap1\n      tag_72\n      jump\t// in\n    tag_71:\n      swap1\n      dup2\n      mstore\n      0x20\n      add\n      mload(0x40)\n      dup1\n      swap2\n      sub\n      swap1\n      keccak256\n        /* \"contracts/Variables.sol\":1170:1195  nameAndNumber[\"Baby\"] = 2 */\n      dup2\n      swap1\n      sstore\n      pop\n        /* \"contracts/Variables.sol\":1072:1203  function addElementToTheMapping() public {... */\n      jump\t// out\n        /* \"contracts/Variables.sol\":795:841  address public contractAddress = address(this) */\n    tag_47:\n      0x05\n      0x00\n      swap1\n      sload\n      swap1\n      0x0100\n      exp\n      swap1\n      div\n      0xffffffffffffffffffffffffffffffffffffffff\n      and\n      dup2\n      jump\t// out\n        /* \"contracts/Variables.sol\":697:723  uint256 public twenty = 20 */\n    tag_51:\n      sload(0x02)\n      dup2\n      jump\t// out\n        /* \"#utility.yul\":7:419   */\n    tag_74:\n        /* \"#utility.yul\":85:90   */\n      0x00\n        /* \"#utility.yul\":110:176   */\n      tag_76\n        /* \"#utility.yul\":126:175   */\n      tag_77\n        /* \"#utility.yul\":168:174   */\n      dup5\n        /* \"#utility.yul\":126:175   */\n      tag_78\n      jump\t// in\n    tag_77:\n        /* \"#utility.yul\":110:176   */\n      tag_79\n      jump\t// in\n    tag_76:\n        /* \"#utility.yul\":101:176   */\n      swap1\n      pop\n        /* \"#utility.yul\":199:205   */\n      dup3\n        /* \"#utility.yul\":192:197   */\n      dup2\n        /* \"#utility.yul\":185:206   */\n      mstore\n        /* \"#utility.yul\":237:241   */\n      0x20\n        /* \"#utility.yul\":230:235   */\n      dup2\n        /* \"#utility.yul\":226:242   */\n      add\n        /* \"#utility.yul\":275:278   */\n      dup5\n        /* \"#utility.yul\":266:272   */\n      dup5\n        /* \"#utility.yul\":261:264   */\n      dup5\n        /* \"#utility.yul\":257:273   */\n      add\n        /* \"#utility.yul\":254:279   */\n      gt\n        /* \"#utility.yul\":251:363   */\n      iszero\n      tag_80\n      jumpi\n        /* \"#utility.yul\":282:361   */\n      tag_81\n      tag_82\n      jump\t// in\n    tag_81:\n        /* \"#utility.yul\":251:363   */\n    tag_80:\n        /* \"#utility.yul\":372:413   */\n      tag_83\n        /* \"#utility.yul\":406:412   */\n      dup5\n        /* \"#utility.yul\":401:404   */\n      dup3\n        /* \"#utility.yul\":396:399   */\n      dup6\n        /* \"#utility.yul\":372:413   */\n      tag_84\n      jump\t// in\n    tag_83:\n        /* \"#utility.yul\":91:419   */\n      pop\n        /* \"#utility.yul\":7:419   */\n      swap4\n      swap3\n      pop\n      pop\n      pop\n      jump\t// out\n        /* \"#utility.yul\":439:779   */\n    tag_85:\n        /* \"#utility.yul\":495:500   */\n      0x00\n        /* \"#utility.yul\":544:547   */\n      dup3\n        /* \"#utility.yul\":537:541   */\n      0x1f\n        /* \"#utility.yul\":529:535   */\n      dup4\n        /* \"#utility.yul\":525:542   */\n      add\n        /* \"#utility.yul\":521:548   */\n      slt\n        /* \"#utility.yul\":511:633   */\n      tag_87\n      jumpi\n        /* \"#utility.yul\":552:631   */\n      tag_88\n      tag_89\n      jump\t// in\n    tag_88:\n        /* \"#utility.yul\":511:633   */\n    tag_87:\n        /* \"#utility.yul\":669:675   */\n      dup2\n        /* \"#utility.yul\":656:676   */\n      calldataload\n        /* \"#utility.yul\":694:773   */\n      tag_90\n        /* \"#utility.yul\":769:772   */\n      dup5\n        /* \"#utility.yul\":761:767   */\n      dup3\n        /* \"#utility.yul\":754:758   */\n      0x20\n        /* \"#utility.yul\":746:752   */\n      dup7\n        /* \"#utility.yul\":742:759   */\n      add\n        /* \"#utility.yul\":694:773   */\n      tag_74\n      jump\t// in\n    tag_90:\n        /* \"#utility.yul\":685:773   */\n      swap2\n      pop\n        /* \"#utility.yul\":501:779   */\n      pop\n        /* \"#utility.yul\":439:779   */\n      swap3\n      swap2\n      pop\n      pop\n      jump\t// out\n        /* \"#utility.yul\":785:924   */\n    tag_91:\n        /* \"#utility.yul\":831:836   */\n      0x00\n        /* \"#utility.yul\":869:875   */\n      dup2\n        /* \"#utility.yul\":856:876   */\n      calldataload\n        /* \"#utility.yul\":847:876   */\n      swap1\n      pop\n        /* \"#utility.yul\":885:918   */\n      tag_93\n        /* \"#utility.yul\":912:917   */\n      dup2\n        /* \"#utility.yul\":885:918   */\n      tag_94\n      jump\t// in\n    tag_93:\n        /* \"#utility.yul\":785:924   */\n      swap3\n      swap2\n      pop\n      pop\n      jump\t// out\n        /* \"#utility.yul\":930:1439   */\n    tag_20:\n        /* \"#utility.yul\":999:1005   */\n      0x00\n        /* \"#utility.yul\":1048:1050   */\n      0x20\n        /* \"#utility.yul\":1036:1045   */\n      dup3\n        /* \"#utility.yul\":1027:1034   */\n      dup5\n        /* \"#utility.yul\":1023:1046   */\n      sub\n        /* \"#utility.yul\":1019:1051   */\n      slt\n        /* \"#utility.yul\":1016:1135   */\n      iszero\n      tag_96\n      jumpi\n        /* \"#utility.yul\":1054:1133   */\n      tag_97\n      tag_98\n      jump\t// in\n    tag_97:\n        /* \"#utility.yul\":1016:1135   */\n    tag_96:\n        /* \"#utility.yul\":1202:1203   */\n      0x00\n        /* \"#utility.yul\":1191:1200   */\n      dup3\n        /* \"#utility.yul\":1187:1204   */\n      add\n        /* \"#utility.yul\":1174:1205   */\n      calldataload\n        /* \"#utility.yul\":1232:1250   */\n      0xffffffffffffffff\n        /* \"#utility.yul\":1224:1230   */\n      dup2\n        /* \"#utility.yul\":1221:1251   */\n      gt\n        /* \"#utility.yul\":1218:1335   */\n      iszero\n      tag_99\n      jumpi\n        /* \"#utility.yul\":1254:1333   */\n      tag_100\n      tag_101\n      jump\t// in\n    tag_100:\n        /* \"#utility.yul\":1218:1335   */\n    tag_99:\n        /* \"#utility.yul\":1359:1422   */\n      tag_102\n        /* \"#utility.yul\":1414:1421   */\n      dup5\n        /* \"#utility.yul\":1405:1411   */\n      dup3\n        /* \"#utility.yul\":1394:1403   */\n      dup6\n        /* \"#utility.yul\":1390:1412   */\n      add\n        /* \"#utility.yul\":1359:1422   */\n      tag_85\n      jump\t// in\n    tag_102:\n        /* \"#utility.yul\":1349:1422   */\n      swap2\n      pop\n        /* \"#utility.yul\":1145:1432   */\n      pop\n        /* \"#utility.yul\":930:1439   */\n      swap3\n      swap2\n      pop\n      pop\n      jump\t// out\n        /* \"#utility.yul\":1445:1774   */\n    tag_37:\n        /* \"#utility.yul\":1504:1510   */\n      0x00\n        /* \"#utility.yul\":1553:1555   */\n      0x20\n        /* \"#utility.yul\":1541:1550   */\n      dup3\n        /* \"#utility.yul\":1532:1539   */\n      dup5\n        /* \"#utility.yul\":1528:1551   */\n      sub\n        /* \"#utility.yul\":1524:1556   */\n      slt\n        /* \"#utility.yul\":1521:1640   */\n      iszero\n      tag_104\n      jumpi\n        /* \"#utility.yul\":1559:1638   */\n      tag_105\n      tag_98\n      jump\t// in\n    tag_105:\n        /* \"#utility.yul\":1521:1640   */\n    tag_104:\n        /* \"#utility.yul\":1679:1680   */\n      0x00\n        /* \"#utility.yul\":1704:1757   */\n      tag_106\n        /* \"#utility.yul\":1749:1756   */\n      dup5\n        /* \"#utility.yul\":1740:1746   */\n      dup3\n        /* \"#utility.yul\":1729:1738   */\n      dup6\n        /* \"#utility.yul\":1725:1747   */\n      add\n        /* \"#utility.yul\":1704:1757   */\n      tag_91\n      jump\t// in\n    tag_106:\n        /* \"#utility.yul\":1694:1757   */\n      swap2\n      pop\n        /* \"#utility.yul\":1650:1767   */\n      pop\n        /* \"#utility.yul\":1445:1774   */\n      swap3\n      swap2\n      pop\n      pop\n      jump\t// out\n        /* \"#utility.yul\":1780:1898   */\n    tag_107:\n        /* \"#utility.yul\":1867:1891   */\n      tag_109\n        /* \"#utility.yul\":1885:1890   */\n      dup2\n        /* \"#utility.yul\":1867:1891   */\n      tag_110\n      jump\t// in\n    tag_109:\n        /* \"#utility.yul\":1862:1865   */\n      dup3\n        /* \"#utility.yul\":1855:1892   */\n      mstore\n        /* \"#utility.yul\":1780:1898   */\n      pop\n      pop\n      jump\t// out\n        /* \"#utility.yul\":1904:2013   */\n    tag_111:\n        /* \"#utility.yul\":1985:2006   */\n      tag_113\n        /* \"#utility.yul\":2000:2005   */\n      dup2\n        /* \"#utility.yul\":1985:2006   */\n      tag_114\n      jump\t// in\n    tag_113:\n        /* \"#utility.yul\":1980:1983   */\n      dup3\n        /* \"#utility.yul\":1973:2007   */\n      mstore\n        /* \"#utility.yul\":1904:2013   */\n      pop\n      pop\n      jump\t// out\n        /* \"#utility.yul\":2019:2134   */\n    tag_115:\n        /* \"#utility.yul\":2104:2127   */\n      tag_117\n        /* \"#utility.yul\":2121:2126   */\n      dup2\n        /* \"#utility.yul\":2104:2127   */\n      tag_118\n      jump\t// in\n    tag_117:\n        /* \"#utility.yul\":2099:2102   */\n      dup3\n        /* \"#utility.yul\":2092:2128   */\n      mstore\n        /* \"#utility.yul\":2019:2134   */\n      pop\n      pop\n      jump\t// out\n        /* \"#utility.yul\":2140:2504   */\n    tag_119:\n        /* \"#utility.yul\":2228:2231   */\n      0x00\n        /* \"#utility.yul\":2256:2295   */\n      tag_121\n        /* \"#utility.yul\":2289:2294   */\n      dup3\n        /* \"#utility.yul\":2256:2295   */\n      tag_122\n      jump\t// in\n    tag_121:\n        /* \"#utility.yul\":2311:2382   */\n      tag_123\n        /* \"#utility.yul\":2375:2381   */\n      dup2\n        /* \"#utility.yul\":2370:2373   */\n      dup6\n        /* \"#utility.yul\":2311:2382   */\n      tag_124\n      jump\t// in\n    tag_123:\n        /* \"#utility.yul\":2304:2382   */\n      swap4\n      pop\n        /* \"#utility.yul\":2391:2443   */\n      tag_125\n        /* \"#utility.yul\":2436:2442   */\n      dup2\n        /* \"#utility.yul\":2431:2434   */\n      dup6\n        /* \"#utility.yul\":2424:2428   */\n      0x20\n        /* \"#utility.yul\":2417:2422   */\n      dup7\n        /* \"#utility.yul\":2413:2429   */\n      add\n        /* \"#utility.yul\":2391:2443   */\n      tag_126\n      jump\t// in\n    tag_125:\n        /* \"#utility.yul\":2468:2497   */\n      tag_127\n        /* \"#utility.yul\":2490:2496   */\n      dup2\n        /* \"#utility.yul\":2468:2497   */\n      tag_128\n      jump\t// in\n    tag_127:\n        /* \"#utility.yul\":2463:2466   */\n      dup5\n        /* \"#utility.yul\":2459:2498   */\n      add\n        /* \"#utility.yul\":2452:2498   */\n      swap2\n      pop\n        /* \"#utility.yul\":2232:2504   */\n      pop\n        /* \"#utility.yul\":2140:2504   */\n      swap3\n      swap2\n      pop\n      pop\n      jump\t// out\n        /* \"#utility.yul\":2510:2910   */\n    tag_129:\n        /* \"#utility.yul\":2670:2673   */\n      0x00\n        /* \"#utility.yul\":2691:2775   */\n      tag_131\n        /* \"#utility.yul\":2773:2774   */\n      0x04\n        /* \"#utility.yul\":2768:2771   */\n      dup4\n        /* \"#utility.yul\":2691:2775   */\n      tag_132\n      jump\t// in\n    tag_131:\n        /* \"#utility.yul\":2684:2775   */\n      swap2\n      pop\n        /* \"#utility.yul\":2784:2877   */\n      tag_133\n        /* \"#utility.yul\":2873:2876   */\n      dup3\n        /* \"#utility.yul\":2784:2877   */\n      tag_134\n      jump\t// in\n    tag_133:\n        /* \"#utility.yul\":2902:2903   */\n      0x04\n        /* \"#utility.yul\":2897:2900   */\n      dup3\n        /* \"#utility.yul\":2893:2904   */\n      add\n        /* \"#utility.yul\":2886:2904   */\n      swap1\n      pop\n        /* \"#utility.yul\":2510:2910   */\n      swap2\n      swap1\n      pop\n      jump\t// out\n        /* \"#utility.yul\":2916:3316   */\n    tag_135:\n        /* \"#utility.yul\":3076:3079   */\n      0x00\n        /* \"#utility.yul\":3097:3181   */\n      tag_137\n        /* \"#utility.yul\":3179:3180   */\n      0x05\n        /* \"#utility.yul\":3174:3177   */\n      dup4\n        /* \"#utility.yul\":3097:3181   */\n      tag_132\n      jump\t// in\n    tag_137:\n        /* \"#utility.yul\":3090:3181   */\n      swap2\n      pop\n        /* \"#utility.yul\":3190:3283   */\n      tag_138\n        /* \"#utility.yul\":3279:3282   */\n      dup3\n        /* \"#utility.yul\":3190:3283   */\n      tag_139\n      jump\t// in\n    tag_138:\n        /* \"#utility.yul\":3308:3309   */\n      0x05\n        /* \"#utility.yul\":3303:3306   */\n      dup3\n        /* \"#utility.yul\":3299:3310   */\n      add\n        /* \"#utility.yul\":3292:3310   */\n      swap1\n      pop\n        /* \"#utility.yul\":2916:3316   */\n      swap2\n      swap1\n      pop\n      jump\t// out\n        /* \"#utility.yul\":3322:3440   */\n    tag_140:\n        /* \"#utility.yul\":3409:3433   */\n      tag_142\n        /* \"#utility.yul\":3427:3432   */\n      dup2\n        /* \"#utility.yul\":3409:3433   */\n      tag_143\n      jump\t// in\n    tag_142:\n        /* \"#utility.yul\":3404:3407   */\n      dup3\n        /* \"#utility.yul\":3397:3434   */\n      mstore\n        /* \"#utility.yul\":3322:3440   */\n      pop\n      pop\n      jump\t// out\n        /* \"#utility.yul\":3446:3827   */\n    tag_72:\n        /* \"#utility.yul\":3631:3634   */\n      0x00\n        /* \"#utility.yul\":3653:3801   */\n      tag_145\n        /* \"#utility.yul\":3797:3800   */\n      dup3\n        /* \"#utility.yul\":3653:3801   */\n      tag_129\n      jump\t// in\n    tag_145:\n        /* \"#utility.yul\":3646:3801   */\n      swap2\n      pop\n        /* \"#utility.yul\":3818:3821   */\n      dup2\n        /* \"#utility.yul\":3811:3821   */\n      swap1\n      pop\n        /* \"#utility.yul\":3446:3827   */\n      swap2\n      swap1\n      pop\n      jump\t// out\n        /* \"#utility.yul\":3833:4214   */\n    tag_70:\n        /* \"#utility.yul\":4018:4021   */\n      0x00\n        /* \"#utility.yul\":4040:4188   */\n      tag_147\n        /* \"#utility.yul\":4184:4187   */\n      dup3\n        /* \"#utility.yul\":4040:4188   */\n      tag_135\n      jump\t// in\n    tag_147:\n        /* \"#utility.yul\":4033:4188   */\n      swap2\n      pop\n        /* \"#utility.yul\":4205:4208   */\n      dup2\n        /* \"#utility.yul\":4198:4208   */\n      swap1\n      pop\n        /* \"#utility.yul\":3833:4214   */\n      swap2\n      swap1\n      pop\n      jump\t// out\n        /* \"#utility.yul\":4220:4442   */\n    tag_49:\n        /* \"#utility.yul\":4313:4317   */\n      0x00\n        /* \"#utility.yul\":4351:4353   */\n      0x20\n        /* \"#utility.yul\":4340:4349   */\n      dup3\n        /* \"#utility.yul\":4336:4354   */\n      add\n        /* \"#utility.yul\":4328:4354   */\n      swap1\n      pop\n        /* \"#utility.yul\":4364:4435   */\n      tag_149\n        /* \"#utility.yul\":4432:4433   */\n      0x00\n        /* \"#utility.yul\":4421:4430   */\n      dup4\n        /* \"#utility.yul\":4417:4434   */\n      add\n        /* \"#utility.yul\":4408:4414   */\n      dup5\n        /* \"#utility.yul\":4364:4435   */\n      tag_107\n      jump\t// in\n    tag_149:\n        /* \"#utility.yul\":4220:4442   */\n      swap3\n      swap2\n      pop\n      pop\n      jump\t// out\n        /* \"#utility.yul\":4448:4658   */\n    tag_27:\n        /* \"#utility.yul\":4535:4539   */\n      0x00\n        /* \"#utility.yul\":4573:4575   */\n      0x20\n        /* \"#utility.yul\":4562:4571   */\n      dup3\n        /* \"#utility.yul\":4558:4576   */\n      add\n        /* \"#utility.yul\":4550:4576   */\n      swap1\n      pop\n        /* \"#utility.yul\":4586:4651   */\n      tag_151\n        /* \"#utility.yul\":4648:4649   */\n      0x00\n        /* \"#utility.yul\":4637:4646   */\n      dup4\n        /* \"#utility.yul\":4633:4650   */\n      add\n        /* \"#utility.yul\":4624:4630   */\n      dup5\n        /* \"#utility.yul\":4586:4651   */\n      tag_111\n      jump\t// in\n    tag_151:\n        /* \"#utility.yul\":4448:4658   */\n      swap3\n      swap2\n      pop\n      pop\n      jump\t// out\n        /* \"#utility.yul\":4664:4882   */\n    tag_34:\n        /* \"#utility.yul\":4755:4759   */\n      0x00\n        /* \"#utility.yul\":4793:4795   */\n      0x20\n        /* \"#utility.yul\":4782:4791   */\n      dup3\n        /* \"#utility.yul\":4778:4796   */\n      add\n        /* \"#utility.yul\":4770:4796   */\n      swap1\n      pop\n        /* \"#utility.yul\":4806:4875   */\n      tag_153\n        /* \"#utility.yul\":4872:4873   */\n      0x00\n        /* \"#utility.yul\":4861:4870   */\n      dup4\n        /* \"#utility.yul\":4857:4874   */\n      add\n        /* \"#utility.yul\":4848:4854   */\n      dup5\n        /* \"#utility.yul\":4806:4875   */\n      tag_115\n      jump\t// in\n    tag_153:\n        /* \"#utility.yul\":4664:4882   */\n      swap3\n      swap2\n      pop\n      pop\n      jump\t// out\n        /* \"#utility.yul\":4888:5201   */\n    tag_17:\n        /* \"#utility.yul\":5001:5005   */\n      0x00\n        /* \"#utility.yul\":5039:5041   */\n      0x20\n        /* \"#utility.yul\":5028:5037   */\n      dup3\n        /* \"#utility.yul\":5024:5042   */\n      add\n        /* \"#utility.yul\":5016:5042   */\n      swap1\n      pop\n        /* \"#utility.yul\":5088:5097   */\n      dup2\n        /* \"#utility.yul\":5082:5086   */\n      dup2\n        /* \"#utility.yul\":5078:5098   */\n      sub\n        /* \"#utility.yul\":5074:5075   */\n      0x00\n        /* \"#utility.yul\":5063:5072   */\n      dup4\n        /* \"#utility.yul\":5059:5076   */\n      add\n        /* \"#utility.yul\":5052:5099   */\n      mstore\n        /* \"#utility.yul\":5116:5194   */\n      tag_155\n        /* \"#utility.yul\":5189:5193   */\n      dup2\n        /* \"#utility.yul\":5180:5186   */\n      dup5\n        /* \"#utility.yul\":5116:5194   */\n      tag_119\n      jump\t// in\n    tag_155:\n        /* \"#utility.yul\":5108:5194   */\n      swap1\n      pop\n        /* \"#utility.yul\":4888:5201   */\n      swap3\n      swap2\n      pop\n      pop\n      jump\t// out\n        /* \"#utility.yul\":5207:5429   */\n    tag_23:\n        /* \"#utility.yul\":5300:5304   */\n      0x00\n        /* \"#utility.yul\":5338:5340   */\n      0x20\n        /* \"#utility.yul\":5327:5336   */\n      dup3\n        /* \"#utility.yul\":5323:5341   */\n      add\n        /* \"#utility.yul\":5315:5341   */\n      swap1\n      pop\n        /* \"#utility.yul\":5351:5422   */\n      tag_157\n        /* \"#utility.yul\":5419:5420   */\n      0x00\n        /* \"#utility.yul\":5408:5417   */\n      dup4\n        /* \"#utility.yul\":5404:5421   */\n      add\n        /* \"#utility.yul\":5395:5401   */\n      dup5\n        /* \"#utility.yul\":5351:5422   */\n      tag_140\n      jump\t// in\n    tag_157:\n        /* \"#utility.yul\":5207:5429   */\n      swap3\n      swap2\n      pop\n      pop\n      jump\t// out\n        /* \"#utility.yul\":5435:5564   */\n    tag_79:\n        /* \"#utility.yul\":5469:5475   */\n      0x00\n        /* \"#utility.yul\":5496:5516   */\n      tag_159\n      tag_160\n      jump\t// in\n    tag_159:\n        /* \"#utility.yul\":5486:5516   */\n      swap1\n      pop\n        /* \"#utility.yul\":5525:5558   */\n      tag_161\n        /* \"#utility.yul\":5553:5557   */\n      dup3\n        /* \"#utility.yul\":5545:5551   */\n      dup3\n        /* \"#utility.yul\":5525:5558   */\n      tag_162\n      jump\t// in\n    tag_161:\n        /* \"#utility.yul\":5435:5564   */\n      swap2\n      swap1\n      pop\n      jump\t// out\n        /* \"#utility.yul\":5570:5645   */\n    tag_160:\n        /* \"#utility.yul\":5603:5609   */\n      0x00\n        /* \"#utility.yul\":5636:5638   */\n      0x40\n        /* \"#utility.yul\":5630:5639   */\n      mload\n        /* \"#utility.yul\":5620:5639   */\n      swap1\n      pop\n        /* \"#utility.yul\":5570:5645   */\n      swap1\n      jump\t// out\n        /* \"#utility.yul\":5651:5959   */\n    tag_78:\n        /* \"#utility.yul\":5713:5717   */\n      0x00\n        /* \"#utility.yul\":5803:5821   */\n      0xffffffffffffffff\n        /* \"#utility.yul\":5795:5801   */\n      dup3\n        /* \"#utility.yul\":5792:5822   */\n      gt\n        /* \"#utility.yul\":5789:5845   */\n      iszero\n      tag_165\n      jumpi\n        /* \"#utility.yul\":5825:5843   */\n      tag_166\n      tag_167\n      jump\t// in\n    tag_166:\n        /* \"#utility.yul\":5789:5845   */\n    tag_165:\n        /* \"#utility.yul\":5863:5892   */\n      tag_168\n        /* \"#utility.yul\":5885:5891   */\n      dup3\n        /* \"#utility.yul\":5863:5892   */\n      tag_128\n      jump\t// in\n    tag_168:\n        /* \"#utility.yul\":5855:5892   */\n      swap1\n      pop\n        /* \"#utility.yul\":5947:5951   */\n      0x20\n        /* \"#utility.yul\":5941:5945   */\n      dup2\n        /* \"#utility.yul\":5937:5952   */\n      add\n        /* \"#utility.yul\":5929:5952   */\n      swap1\n      pop\n        /* \"#utility.yul\":5651:5959   */\n      swap2\n      swap1\n      pop\n      jump\t// out\n        /* \"#utility.yul\":5965:6064   */\n    tag_122:\n        /* \"#utility.yul\":6017:6023   */\n      0x00\n        /* \"#utility.yul\":6051:6056   */\n      dup2\n        /* \"#utility.yul\":6045:6057   */\n      mload\n        /* \"#utility.yul\":6035:6057   */\n      swap1\n      pop\n        /* \"#utility.yul\":5965:6064   */\n      swap2\n      swap1\n      pop\n      jump\t// out\n        /* \"#utility.yul\":6070:6239   */\n    tag_124:\n        /* \"#utility.yul\":6154:6165   */\n      0x00\n        /* \"#utility.yul\":6188:6194   */\n      dup3\n        /* \"#utility.yul\":6183:6186   */\n      dup3\n        /* \"#utility.yul\":6176:6195   */\n      mstore\n        /* \"#utility.yul\":6228:6232   */\n      0x20\n        /* \"#utility.yul\":6223:6226   */\n      dup3\n        /* \"#utility.yul\":6219:6233   */\n      add\n        /* \"#utility.yul\":6204:6233   */\n      swap1\n      pop\n        /* \"#utility.yul\":6070:6239   */\n      swap3\n      swap2\n      pop\n      pop\n      jump\t// out\n        /* \"#utility.yul\":6245:6393   */\n    tag_132:\n        /* \"#utility.yul\":6347:6358   */\n      0x00\n        /* \"#utility.yul\":6384:6387   */\n      dup2\n        /* \"#utility.yul\":6369:6387   */\n      swap1\n      pop\n        /* \"#utility.yul\":6245:6393   */\n      swap3\n      swap2\n      pop\n      pop\n      jump\t// out\n        /* \"#utility.yul\":6399:6495   */\n    tag_110:\n        /* \"#utility.yul\":6436:6443   */\n      0x00\n        /* \"#utility.yul\":6465:6489   */\n      tag_173\n        /* \"#utility.yul\":6483:6488   */\n      dup3\n        /* \"#utility.yul\":6465:6489   */\n      tag_174\n      jump\t// in\n    tag_173:\n        /* \"#utility.yul\":6454:6489   */\n      swap1\n      pop\n        /* \"#utility.yul\":6399:6495   */\n      swap2\n      swap1\n      pop\n      jump\t// out\n        /* \"#utility.yul\":6501:6591   */\n    tag_114:\n        /* \"#utility.yul\":6535:6542   */\n      0x00\n        /* \"#utility.yul\":6578:6583   */\n      dup2\n        /* \"#utility.yul\":6571:6584   */\n      iszero\n        /* \"#utility.yul\":6564:6585   */\n      iszero\n        /* \"#utility.yul\":6553:6585   */\n      swap1\n      pop\n        /* \"#utility.yul\":6501:6591   */\n      swap2\n      swap1\n      pop\n      jump\t// out\n        /* \"#utility.yul\":6597:6673   */\n    tag_118:\n        /* \"#utility.yul\":6633:6640   */\n      0x00\n        /* \"#utility.yul\":6662:6667   */\n      dup2\n        /* \"#utility.yul\":6651:6667   */\n      swap1\n      pop\n        /* \"#utility.yul\":6597:6673   */\n      swap2\n      swap1\n      pop\n      jump\t// out\n        /* \"#utility.yul\":6679:6805   */\n    tag_174:\n        /* \"#utility.yul\":6716:6723   */\n      0x00\n        /* \"#utility.yul\":6756:6798   */\n      0xffffffffffffffffffffffffffffffffffffffff\n        /* \"#utility.yul\":6749:6754   */\n      dup3\n        /* \"#utility.yul\":6745:6799   */\n      and\n        /* \"#utility.yul\":6734:6799   */\n      swap1\n      pop\n        /* \"#utility.yul\":6679:6805   */\n      swap2\n      swap1\n      pop\n      jump\t// out\n        /* \"#utility.yul\":6811:6888   */\n    tag_143:\n        /* \"#utility.yul\":6848:6855   */\n      0x00\n        /* \"#utility.yul\":6877:6882   */\n      dup2\n        /* \"#utility.yul\":6866:6882   */\n      swap1\n      pop\n        /* \"#utility.yul\":6811:6888   */\n      swap2\n      swap1\n      pop\n      jump\t// out\n        /* \"#utility.yul\":6894:7048   */\n    tag_84:\n        /* \"#utility.yul\":6978:6984   */\n      dup3\n        /* \"#utility.yul\":6973:6976   */\n      dup2\n        /* \"#utility.yul\":6968:6971   */\n      dup4\n        /* \"#utility.yul\":6955:6985   */\n      calldatacopy\n        /* \"#utility.yul\":7040:7041   */\n      0x00\n        /* \"#utility.yul\":7031:7037   */\n      dup4\n        /* \"#utility.yul\":7026:7029   */\n      dup4\n        /* \"#utility.yul\":7022:7038   */\n      add\n        /* \"#utility.yul\":7015:7042   */\n      mstore\n        /* \"#utility.yul\":6894:7048   */\n      pop\n      pop\n      pop\n      jump\t// out\n        /* \"#utility.yul\":7054:7361   */\n    tag_126:\n        /* \"#utility.yul\":7122:7123   */\n      0x00\n        /* \"#utility.yul\":7132:7245   */\n    tag_181:\n        /* \"#utility.yul\":7146:7152   */\n      dup4\n        /* \"#utility.yul\":7143:7144   */\n      dup2\n        /* \"#utility.yul\":7140:7153   */\n      lt\n        /* \"#utility.yul\":7132:7245   */\n      iszero\n      tag_183\n      jumpi\n        /* \"#utility.yul\":7231:7232   */\n      dup1\n        /* \"#utility.yul\":7226:7229   */\n      dup3\n        /* \"#utility.yul\":7222:7233   */\n      add\n        /* \"#utility.yul\":7216:7234   */\n      mload\n        /* \"#utility.yul\":7212:7213   */\n      dup2\n        /* \"#utility.yul\":7207:7210   */\n      dup5\n        /* \"#utility.yul\":7203:7214   */\n      add\n        /* \"#utility.yul\":7196:7235   */\n      mstore\n        /* \"#utility.yul\":7168:7170   */\n      0x20\n        /* \"#utility.yul\":7165:7166   */\n      dup2\n        /* \"#utility.yul\":7161:7171   */\n      add\n        /* \"#utility.yul\":7156:7171   */\n      swap1\n      pop\n        /* \"#utility.yul\":7132:7245   */\n      jump(tag_181)\n    tag_183:\n        /* \"#utility.yul\":7263:7269   */\n      dup4\n        /* \"#utility.yul\":7260:7261   */\n      dup2\n        /* \"#utility.yul\":7257:7270   */\n      gt\n        /* \"#utility.yul\":7254:7355   */\n      iszero\n      tag_184\n      jumpi\n        /* \"#utility.yul\":7343:7344   */\n      0x00\n        /* \"#utility.yul\":7334:7340   */\n      dup5\n        /* \"#utility.yul\":7329:7332   */\n      dup5\n        /* \"#utility.yul\":7325:7341   */\n      add\n        /* \"#utility.yul\":7318:7345   */\n      mstore\n        /* \"#utility.yul\":7254:7355   */\n    tag_184:\n        /* \"#utility.yul\":7103:7361   */\n      pop\n        /* \"#utility.yul\":7054:7361   */\n      pop\n      pop\n      pop\n      jump\t// out\n        /* \"#utility.yul\":7367:7687   */\n    tag_54:\n        /* \"#utility.yul\":7411:7417   */\n      0x00\n        /* \"#utility.yul\":7448:7449   */\n      0x02\n        /* \"#utility.yul\":7442:7446   */\n      dup3\n        /* \"#utility.yul\":7438:7450   */\n      div\n        /* \"#utility.yul\":7428:7450   */\n      swap1\n      pop\n        /* \"#utility.yul\":7495:7496   */\n      0x01\n        /* \"#utility.yul\":7489:7493   */\n      dup3\n        /* \"#utility.yul\":7485:7497   */\n      and\n        /* \"#utility.yul\":7516:7534   */\n      dup1\n        /* \"#utility.yul\":7506:7587   */\n      tag_186\n      jumpi\n        /* \"#utility.yul\":7572:7576   */\n      0x7f\n        /* \"#utility.yul\":7564:7570   */\n      dup3\n        /* \"#utility.yul\":7560:7577   */\n      and\n        /* \"#utility.yul\":7550:7577   */\n      swap2\n      pop\n        /* \"#utility.yul\":7506:7587   */\n    tag_186:\n        /* \"#utility.yul\":7634:7636   */\n      0x20\n        /* \"#utility.yul\":7626:7632   */\n      dup3\n        /* \"#utility.yul\":7623:7637   */\n      lt\n        /* \"#utility.yul\":7603:7621   */\n      dup2\n        /* \"#utility.yul\":7600:7638   */\n      eq\n        /* \"#utility.yul\":7597:7681   */\n      iszero\n      tag_187\n      jumpi\n        /* \"#utility.yul\":7653:7671   */\n      tag_188\n      tag_189\n      jump\t// in\n    tag_188:\n        /* \"#utility.yul\":7597:7681   */\n    tag_187:\n        /* \"#utility.yul\":7418:7687   */\n      pop\n        /* \"#utility.yul\":7367:7687   */\n      swap2\n      swap1\n      pop\n      jump\t// out\n        /* \"#utility.yul\":7693:7974   */\n    tag_162:\n        /* \"#utility.yul\":7776:7803   */\n      tag_191\n        /* \"#utility.yul\":7798:7802   */\n      dup3\n        /* \"#utility.yul\":7776:7803   */\n      tag_128\n      jump\t// in\n    tag_191:\n        /* \"#utility.yul\":7768:7774   */\n      dup2\n        /* \"#utility.yul\":7764:7804   */\n      add\n        /* \"#utility.yul\":7906:7912   */\n      dup2\n        /* \"#utility.yul\":7894:7904   */\n      dup2\n        /* \"#utility.yul\":7891:7913   */\n      lt\n        /* \"#utility.yul\":7870:7888   */\n      0xffffffffffffffff\n        /* \"#utility.yul\":7858:7868   */\n      dup3\n        /* \"#utility.yul\":7855:7889   */\n      gt\n        /* \"#utility.yul\":7852:7914   */\n      or\n        /* \"#utility.yul\":7849:7937   */\n      iszero\n      tag_192\n      jumpi\n        /* \"#utility.yul\":7917:7935   */\n      tag_193\n      tag_167\n      jump\t// in\n    tag_193:\n        /* \"#utility.yul\":7849:7937   */\n    tag_192:\n        /* \"#utility.yul\":7957:7967   */\n      dup1\n        /* \"#utility.yul\":7953:7955   */\n      0x40\n        /* \"#utility.yul\":7946:7968   */\n      mstore\n        /* \"#utility.yul\":7736:7974   */\n      pop\n        /* \"#utility.yul\":7693:7974   */\n      pop\n      pop\n      jump\t// out\n        /* \"#utility.yul\":7980:8160   */\n    tag_189:\n        /* \"#utility.yul\":8028:8105   */\n      0x4e487b7100000000000000000000000000000000000000000000000000000000\n        /* \"#utility.yul\":8025:8026   */\n      0x00\n        /* \"#utility.yul\":8018:8106   */\n      mstore\n        /* \"#utility.yul\":8125:8129   */\n      0x22\n        /* \"#utility.yul\":8122:8123   */\n      0x04\n        /* \"#utility.yul\":8115:8130   */\n      mstore\n        /* \"#utility.yul\":8149:8153   */\n      0x24\n        /* \"#utility.yul\":8146:8147   */\n      0x00\n        /* \"#utility.yul\":8139:8154   */\n      revert\n        /* \"#utility.yul\":8166:8346   */\n    tag_167:\n        /* \"#utility.yul\":8214:8291   */\n      0x4e487b7100000000000000000000000000000000000000000000000000000000\n        /* \"#utility.yul\":8211:8212   */\n      0x00\n        /* \"#utility.yul\":8204:8292   */\n      mstore\n        /* \"#utility.yul\":8311:8315   */\n      0x41\n        /* \"#utility.yul\":8308:8309   */\n      0x04\n        /* \"#utility.yul\":8301:8316   */\n      mstore\n        /* \"#utility.yul\":8335:8339   */\n      0x24\n        /* \"#utility.yul\":8332:8333   */\n      0x00\n        /* \"#utility.yul\":8325:8340   */\n      revert\n        /* \"#utility.yul\":8352:8469   */\n    tag_89:\n        /* \"#utility.yul\":8461:8462   */\n      0x00\n        /* \"#utility.yul\":8458:8459   */\n      dup1\n        /* \"#utility.yul\":8451:8463   */\n      revert\n        /* \"#utility.yul\":8475:8592   */\n    tag_82:\n        /* \"#utility.yul\":8584:8585   */\n      0x00\n        /* \"#utility.yul\":8581:8582   */\n      dup1\n        /* \"#utility.yul\":8574:8586   */\n      revert\n        /* \"#utility.yul\":8598:8715   */\n    tag_101:\n        /* \"#utility.yul\":8707:8708   */\n      0x00\n        /* \"#utility.yul\":8704:8705   */\n      dup1\n        /* \"#utility.yul\":8697:8709   */\n      revert\n        /* \"#utility.yul\":8721:8838   */\n    tag_98:\n        /* \"#utility.yul\":8830:8831   */\n      0x00\n        /* \"#utility.yul\":8827:8828   */\n      dup1\n        /* \"#utility.yul\":8820:8832   */\n      revert\n        /* \"#utility.yul\":8844:8946   */\n    tag_128:\n        /* \"#utility.yul\":8885:8891   */\n      0x00\n        /* \"#utility.yul\":8936:8938   */\n      0x1f\n        /* \"#utility.yul\":8932:8939   */\n      not\n        /* \"#utility.yul\":8927:8929   */\n      0x1f\n        /* \"#utility.yul\":8920:8925   */\n      dup4\n        /* \"#utility.yul\":8916:8930   */\n      add\n        /* \"#utility.yul\":8912:8940   */\n      and\n        /* \"#utility.yul\":8902:8940   */\n      swap1\n      pop\n        /* \"#utility.yul\":8844:8946   */\n      swap2\n      swap1\n      pop\n      jump\t// out\n        /* \"#utility.yul\":8952:9106   */\n    tag_134:\n        /* \"#utility.yul\":9092:9098   */\n      0x4261627900000000000000000000000000000000000000000000000000000000\n        /* \"#utility.yul\":9088:9089   */\n      0x00\n        /* \"#utility.yul\":9080:9086   */\n      dup3\n        /* \"#utility.yul\":9076:9090   */\n      add\n        /* \"#utility.yul\":9069:9099   */\n      mstore\n        /* \"#utility.yul\":8952:9106   */\n      pop\n      jump\t// out\n        /* \"#utility.yul\":9112:9267   */\n    tag_139:\n        /* \"#utility.yul\":9252:9259   */\n      0x4579797562000000000000000000000000000000000000000000000000000000\n        /* \"#utility.yul\":9248:9249   */\n      0x00\n        /* \"#utility.yul\":9240:9246   */\n      dup3\n        /* \"#utility.yul\":9236:9250   */\n      add\n        /* \"#utility.yul\":9229:9260   */\n      mstore\n        /* \"#utility.yul\":9112:9267   */\n      pop\n      jump\t// out\n        /* \"#utility.yul\":9273:9395   */\n    tag_94:\n        /* \"#utility.yul\":9346:9370   */\n      tag_204\n        /* \"#utility.yul\":9364:9369   */\n      dup2\n        /* \"#utility.yul\":9346:9370   */\n      tag_143\n      jump\t// in\n    tag_204:\n        /* \"#utility.yul\":9339:9344   */\n      dup2\n        /* \"#utility.yul\":9336:9371   */\n      eq\n        /* \"#utility.yul\":9326:9389   */\n      tag_205\n      jumpi\n        /* \"#utility.yul\":9385:9386   */\n      0x00\n        /* \"#utility.yul\":9382:9383   */\n      dup1\n        /* \"#utility.yul\":9375:9387   */\n      revert\n        /* \"#utility.yul\":9326:9389   */\n    tag_205:\n        /* \"#utility.yul\":9273:9395   */\n      pop\n      jump\t// out\n\n    auxdata: 0xa2646970667358221220f656a0c600cd1aace74b0812b2a7024464350590c52548aaebf84526cf1f90e364736f6c63430008070033\n}\n",
				"bytecode": {
					"linkReferences": {},
					"object": "608060405260146002556103e860035530600560006101000a81548173ffffffffffffffffffffffffffffffffffffffff021916908373ffffffffffffffffffffffffffffffffffffffff1602179055506040518060a00160405280600160ff168152602001600260ff168152602001600360ff168152602001600460ff168152602001600560ff1681525060069060056200009d929190620001ba565b5060405180608001604052806040518060400160405280600181526020017f610000000000000000000000000000000000000000000000000000000000000081525081526020016040518060400160405280600181526020017f620000000000000000000000000000000000000000000000000000000000000081525081526020016040518060400160405280600181526020017f630000000000000000000000000000000000000000000000000000000000000081525081526020016040518060400160405280600181526020017f64000000000000000000000000000000000000000000000000000000000000008152508152506007906004620001a592919062000211565b50348015620001b357600080fd5b50620003fb565b828054828255906000526020600020908101928215620001fe579160200282015b82811115620001fd578251829060ff16905591602001919060010190620001db565b5b5090506200020d919062000278565b5090565b82805482825590600052602060002090810192821562000265579160200282015b82811115620002645782518290805190602001906200025392919062000297565b509160200191906001019062000232565b5b50905062000274919062000328565b5090565b5b808211156200029357600081600090555060010162000279565b5090565b828054620002a59062000396565b90600052602060002090601f016020900481019282620002c9576000855562000315565b82601f10620002e457805160ff191683800117855562000315565b8280016001018555821562000315579182015b8281111562000314578251825591602001919060010190620002f7565b5b50905062000324919062000278565b5090565b5b808211156200034c576000818162000342919062000350565b5060010162000329565b5090565b5080546200035e9062000396565b6000825580601f1062000372575062000393565b601f01602090049060005260206000209081019062000392919062000278565b5b50565b60006002820490506001821680620003af57607f821691505b60208210811415620003c657620003c5620003cc565b5b50919050565b7f4e487b7100000000000000000000000000000000000000000000000000000000600052602260045260246000fd5b610910806200040b6000396000f3fe608060405234801561001057600080fd5b506004361061009e5760003560e01c8063a2a0e4c311610066578063a2a0e4c31461014b578063d39fa2331461017b578063e13a9a32146101ab578063f6b4dfb4146101b5578063f8af9dd2146101d35761009e565b806306fdde03146100a35780630d8e8ff0146100c15780633888624b146100f157806354353f2f1461010f578063643ceff91461012d575b600080fd5b6100ab6101f1565b6040516100b8919061063d565b60405180910390f35b6100db60048036038101906100d69190610491565b61027f565b6040516100e8919061065f565b60405180910390f35b6100f96102ad565b6040516101069190610607565b60405180910390f35b6101176102be565b604051610124919061065f565b60405180910390f35b6101356102c4565b6040516101429190610622565b60405180910390f35b610165600480360381019061016091906104da565b6102ca565b604051610172919061063d565b60405180910390f35b610195600480360381019061019091906104da565b610376565b6040516101a2919061065f565b60405180910390f35b6101b361039a565b005b6101bd6103e0565b6040516101ca91906105ec565b60405180910390f35b6101db610406565b6040516101e8919061065f565b60405180910390f35b600480546101fe9061078b565b80601f016020809104026020016040519081016040528092919081815260200182805461022a9061078b565b80156102775780601f1061024c57610100808354040283529160200191610277565b820191906000526020600020905b81548152906001019060200180831161025a57829003601f168201915b505050505081565b6008818051602081018201805184825260208301602085012081835280955050505050506000915090505481565b60008054906101000a900460ff1681565b60035481565b60015481565b600781815481106102da57600080fd5b9060005260206000200160009150905080546102f59061078b565b80601f01602080910402602001604051908101604052809291908181526020018280546103219061078b565b801561036e5780601f106103435761010080835404028352916020019161036e565b820191906000526020600020905b81548152906001019060200180831161035157829003601f168201915b505050505081565b6006818154811061038657600080fd5b906000526020600020016000915090505481565b601860086040516103aa906105d7565b908152602001604051809103902081905550600260086040516103cc906105c2565b908152602001604051809103902081905550565b600560009054906101000a900473ffffffffffffffffffffffffffffffffffffffff1681565b60025481565b600061041f61041a8461069f565b61067a565b90508281526020810184848401111561043b5761043a610851565b5b610446848285610749565b509392505050565b600082601f8301126104635761046261084c565b5b813561047384826020860161040c565b91505092915050565b60008135905061048b816108c3565b92915050565b6000602082840312156104a7576104a661085b565b5b600082013567ffffffffffffffff8111156104c5576104c4610856565b5b6104d18482850161044e565b91505092915050565b6000602082840312156104f0576104ef61085b565b5b60006104fe8482850161047c565b91505092915050565b610510816106f7565b82525050565b61051f81610709565b82525050565b61052e81610715565b82525050565b600061053f826106d0565b61054981856106db565b9350610559818560208601610758565b61056281610860565b840191505092915050565b600061057a6004836106ec565b915061058582610871565b600482019050919050565b600061059d6005836106ec565b91506105a88261089a565b600582019050919050565b6105bc8161073f565b82525050565b60006105cd8261056d565b9150819050919050565b60006105e282610590565b9150819050919050565b60006020820190506106016000830184610507565b92915050565b600060208201905061061c6000830184610516565b92915050565b60006020820190506106376000830184610525565b92915050565b600060208201905081810360008301526106578184610534565b905092915050565b600060208201905061067460008301846105b3565b92915050565b6000610684610695565b905061069082826107bd565b919050565b6000604051905090565b600067ffffffffffffffff8211156106ba576106b961081d565b5b6106c382610860565b9050602081019050919050565b600081519050919050565b600082825260208201905092915050565b600081905092915050565b60006107028261071f565b9050919050565b60008115159050919050565b6000819050919050565b600073ffffffffffffffffffffffffffffffffffffffff82169050919050565b6000819050919050565b82818337600083830152505050565b60005b8381101561077657808201518184015260208101905061075b565b83811115610785576000848401525b50505050565b600060028204905060018216806107a357607f821691505b602082108114156107b7576107b66107ee565b5b50919050565b6107c682610860565b810181811067ffffffffffffffff821117156107e5576107e461081d565b5b80604052505050565b7f4e487b7100000000000000000000000000000000000000000000000000000000600052602260045260246000fd5b7f4e487b7100000000000000000000000000000000000000000000000000000000600052604160045260246000fd5b600080fd5b600080fd5b600080fd5b600080fd5b6000601f19601f8301169050919050565b7f4261627900000000000000000000000000000000000000000000000000000000600082015250565b7f4579797562000000000000000000000000000000000000000000000000000000600082015250565b6108cc8161073f565b81146108d757600080fd5b5056fea2646970667358221220f656a0c600cd1aace74b0812b2a7024464350590c52548aaebf84526cf1f90e364736f6c63430008070033",
					"opcodes": "PUSH1 0x80 PUSH1 0x40 MSTORE PUSH1 0x14 PUSH1 0x2 SSTORE PUSH2 0x3E8 PUSH1 0x3 SSTORE ADDRESS PUSH1 0x5 PUSH1 0x0 PUSH2 0x100 EXP DUP2 SLOAD DUP2 PUSH20 0xFFFFFFFFFFFFFFFFFFFFFFFFFFFFFFFFFFFFFFFF MUL NOT AND SWAP1 DUP4 PUSH20 0xFFFFFFFFFFFFFFFFFFFFFFFFFFFFFFFFFFFFFFFF AND MUL OR SWAP1 SSTORE POP PUSH1 0x40 MLOAD DUP1 PUSH1 0xA0 ADD PUSH1 0x40 MSTORE DUP1 PUSH1 0x1 PUSH1 0xFF AND DUP2 MSTORE PUSH1 0x20 ADD PUSH1 0x2 PUSH1 0xFF AND DUP2 MSTORE PUSH1 0x20 ADD PUSH1 0x3 PUSH1 0xFF AND DUP2 MSTORE PUSH1 0x20 ADD PUSH1 0x4 PUSH1 0xFF AND DUP2 MSTORE PUSH1 0x20 ADD PUSH1 0x5 PUSH1 0xFF AND DUP2 MSTORE POP PUSH1 0x6 SWAP1 PUSH1 0x5 PUSH3 0x9D SWAP3 SWAP2 SWAP1 PUSH3 0x1BA JUMP JUMPDEST POP PUSH1 0x40 MLOAD DUP1 PUSH1 0x80 ADD PUSH1 0x40 MSTORE DUP1 PUSH1 0x40 MLOAD DUP1 PUSH1 0x40 ADD PUSH1 0x40 MSTORE DUP1 PUSH1 0x1 DUP2 MSTORE PUSH1 0x20 ADD PUSH32 0x6100000000000000000000000000000000000000000000000000000000000000 DUP2 MSTORE POP DUP2 MSTORE PUSH1 0x20 ADD PUSH1 0x40 MLOAD DUP1 PUSH1 0x40 ADD PUSH1 0x40 MSTORE DUP1 PUSH1 0x1 DUP2 MSTORE PUSH1 0x20 ADD PUSH32 0x6200000000000000000000000000000000000000000000000000000000000000 DUP2 MSTORE POP DUP2 MSTORE PUSH1 0x20 ADD PUSH1 0x40 MLOAD DUP1 PUSH1 0x40 ADD PUSH1 0x40 MSTORE DUP1 PUSH1 0x1 DUP2 MSTORE PUSH1 0x20 ADD PUSH32 0x6300000000000000000000000000000000000000000000000000000000000000 DUP2 MSTORE POP DUP2 MSTORE PUSH1 0x20 ADD PUSH1 0x40 MLOAD DUP1 PUSH1 0x40 ADD PUSH1 0x40 MSTORE DUP1 PUSH1 0x1 DUP2 MSTORE PUSH1 0x20 ADD PUSH32 0x6400000000000000000000000000000000000000000000000000000000000000 DUP2 MSTORE POP DUP2 MSTORE POP PUSH1 0x7 SWAP1 PUSH1 0x4 PUSH3 0x1A5 SWAP3 SWAP2 SWAP1 PUSH3 0x211 JUMP JUMPDEST POP CALLVALUE DUP1 ISZERO PUSH3 0x1B3 JUMPI PUSH1 0x0 DUP1 REVERT JUMPDEST POP PUSH3 0x3FB JUMP JUMPDEST DUP3 DUP1 SLOAD DUP3 DUP3 SSTORE SWAP1 PUSH1 0x0 MSTORE PUSH1 0x20 PUSH1 0x0 KECCAK256 SWAP1 DUP2 ADD SWAP3 DUP3 ISZERO PUSH3 0x1FE JUMPI SWAP2 PUSH1 0x20 MUL DUP3 ADD JUMPDEST DUP3 DUP2 GT ISZERO PUSH3 0x1FD JUMPI DUP3 MLOAD DUP3 SWAP1 PUSH1 0xFF AND SWAP1 SSTORE SWAP2 PUSH1 0x20 ADD SWAP2 SWAP1 PUSH1 0x1 ADD SWAP1 PUSH3 0x1DB JUMP JUMPDEST JUMPDEST POP SWAP1 POP PUSH3 0x20D SWAP2 SWAP1 PUSH3 0x278 JUMP JUMPDEST POP SWAP1 JUMP JUMPDEST DUP3 DUP1 SLOAD DUP3 DUP3 SSTORE SWAP1 PUSH1 0x0 MSTORE PUSH1 0x20 PUSH1 0x0 KECCAK256 SWAP1 DUP2 ADD SWAP3 DUP3 ISZERO PUSH3 0x265 JUMPI SWAP2 PUSH1 0x20 MUL DUP3 ADD JUMPDEST DUP3 DUP2 GT ISZERO PUSH3 0x264 JUMPI DUP3 MLOAD DUP3 SWAP1 DUP1 MLOAD SWAP1 PUSH1 0x20 ADD SWAP1 PUSH3 0x253 SWAP3 SWAP2 SWAP1 PUSH3 0x297 JUMP JUMPDEST POP SWAP2 PUSH1 0x20 ADD SWAP2 SWAP1 PUSH1 0x1 ADD SWAP1 PUSH3 0x232 JUMP JUMPDEST JUMPDEST POP SWAP1 POP PUSH3 0x274 SWAP2 SWAP1 PUSH3 0x328 JUMP JUMPDEST POP SWAP1 JUMP JUMPDEST JUMPDEST DUP1 DUP3 GT ISZERO PUSH3 0x293 JUMPI PUSH1 0x0 DUP2 PUSH1 0x0 SWAP1 SSTORE POP PUSH1 0x1 ADD PUSH3 0x279 JUMP JUMPDEST POP SWAP1 JUMP JUMPDEST DUP3 DUP1 SLOAD PUSH3 0x2A5 SWAP1 PUSH3 0x396 JUMP JUMPDEST SWAP1 PUSH1 0x0 MSTORE PUSH1 0x20 PUSH1 0x0 KECCAK256 SWAP1 PUSH1 0x1F ADD PUSH1 0x20 SWAP1 DIV DUP2 ADD SWAP3 DUP3 PUSH3 0x2C9 JUMPI PUSH1 0x0 DUP6 SSTORE PUSH3 0x315 JUMP JUMPDEST DUP3 PUSH1 0x1F LT PUSH3 0x2E4 JUMPI DUP1 MLOAD PUSH1 0xFF NOT AND DUP4 DUP1 ADD OR DUP6 SSTORE PUSH3 0x315 JUMP JUMPDEST DUP3 DUP1 ADD PUSH1 0x1 ADD DUP6 SSTORE DUP3 ISZERO PUSH3 0x315 JUMPI SWAP2 DUP3 ADD JUMPDEST DUP3 DUP2 GT ISZERO PUSH3 0x314 JUMPI DUP3 MLOAD DUP3 SSTORE SWAP2 PUSH1 0x20 ADD SWAP2 SWAP1 PUSH1 0x1 ADD SWAP1 PUSH3 0x2F7 JUMP JUMPDEST JUMPDEST POP SWAP1 POP PUSH3 0x324 SWAP2 SWAP1 PUSH3 0x278 JUMP JUMPDEST POP SWAP1 JUMP JUMPDEST JUMPDEST DUP1 DUP3 GT ISZERO PUSH3 0x34C JUMPI PUSH1 0x0 DUP2 DUP2 PUSH3 0x342 SWAP2 SWAP1 PUSH3 0x350 JUMP JUMPDEST POP PUSH1 0x1 ADD PUSH3 0x329 JUMP JUMPDEST POP SWAP1 JUMP JUMPDEST POP DUP1 SLOAD PUSH3 0x35E SWAP1 PUSH3 0x396 JUMP JUMPDEST PUSH1 0x0 DUP3 SSTORE DUP1 PUSH1 0x1F LT PUSH3 0x372 JUMPI POP PUSH3 0x393 JUMP JUMPDEST PUSH1 0x1F ADD PUSH1 0x20 SWAP1 DIV SWAP1 PUSH1 0x0 MSTORE PUSH1 0x20 PUSH1 0x0 KECCAK256 SWAP1 DUP2 ADD SWAP1 PUSH3 0x392 SWAP2 SWAP1 PUSH3 0x278 JUMP JUMPDEST JUMPDEST POP JUMP JUMPDEST PUSH1 0x0 PUSH1 0x2 DUP3 DIV SWAP1 POP PUSH1 0x1 DUP3 AND DUP1 PUSH3 0x3AF JUMPI PUSH1 0x7F DUP3 AND SWAP2 POP JUMPDEST PUSH1 0x20 DUP3 LT DUP2 EQ ISZERO PUSH3 0x3C6 JUMPI PUSH3 0x3C5 PUSH3 0x3CC JUMP JUMPDEST JUMPDEST POP SWAP2 SWAP1 POP JUMP JUMPDEST PUSH32 0x4E487B7100000000000000000000000000000000000000000000000000000000 PUSH1 0x0 MSTORE PUSH1 0x22 PUSH1 0x4 MSTORE PUSH1 0x24 PUSH1 0x0 REVERT JUMPDEST PUSH2 0x910 DUP1 PUSH3 0x40B PUSH1 0x0 CODECOPY PUSH1 0x0 RETURN INVALID PUSH1 0x80 PUSH1 0x40 MSTORE CALLVALUE DUP1 ISZERO PUSH2 0x10 JUMPI PUSH1 0x0 DUP1 REVERT JUMPDEST POP PUSH1 0x4 CALLDATASIZE LT PUSH2 0x9E JUMPI PUSH1 0x0 CALLDATALOAD PUSH1 0xE0 SHR DUP1 PUSH4 0xA2A0E4C3 GT PUSH2 0x66 JUMPI DUP1 PUSH4 0xA2A0E4C3 EQ PUSH2 0x14B JUMPI DUP1 PUSH4 0xD39FA233 EQ PUSH2 0x17B JUMPI DUP1 PUSH4 0xE13A9A32 EQ PUSH2 0x1AB JUMPI DUP1 PUSH4 0xF6B4DFB4 EQ PUSH2 0x1B5 JUMPI DUP1 PUSH4 0xF8AF9DD2 EQ PUSH2 0x1D3 JUMPI PUSH2 0x9E JUMP JUMPDEST DUP1 PUSH4 0x6FDDE03 EQ PUSH2 0xA3 JUMPI DUP1 PUSH4 0xD8E8FF0 EQ PUSH2 0xC1 JUMPI DUP1 PUSH4 0x3888624B EQ PUSH2 0xF1 JUMPI DUP1 PUSH4 0x54353F2F EQ PUSH2 0x10F JUMPI DUP1 PUSH4 0x643CEFF9 EQ PUSH2 0x12D JUMPI JUMPDEST PUSH1 0x0 DUP1 REVERT JUMPDEST PUSH2 0xAB PUSH2 0x1F1 JUMP JUMPDEST PUSH1 0x40 MLOAD PUSH2 0xB8 SWAP2 SWAP1 PUSH2 0x63D JUMP JUMPDEST PUSH1 0x40 MLOAD DUP1 SWAP2 SUB SWAP1 RETURN JUMPDEST PUSH2 0xDB PUSH1 0x4 DUP1 CALLDATASIZE SUB DUP2 ADD SWAP1 PUSH2 0xD6 SWAP2 SWAP1 PUSH2 0x491 JUMP JUMPDEST PUSH2 0x27F JUMP JUMPDEST PUSH1 0x40 MLOAD PUSH2 0xE8 SWAP2 SWAP1 PUSH2 0x65F JUMP JUMPDEST PUSH1 0x40 MLOAD DUP1 SWAP2 SUB SWAP1 RETURN JUMPDEST PUSH2 0xF9 PUSH2 0x2AD JUMP JUMPDEST PUSH1 0x40 MLOAD PUSH2 0x106 SWAP2 SWAP1 PUSH2 0x607 JUMP JUMPDEST PUSH1 0x40 MLOAD DUP1 SWAP2 SUB SWAP1 RETURN JUMPDEST PUSH2 0x117 PUSH2 0x2BE JUMP JUMPDEST PUSH1 0x40 MLOAD PUSH2 0x124 SWAP2 SWAP1 PUSH2 0x65F JUMP JUMPDEST PUSH1 0x40 MLOAD DUP1 SWAP2 SUB SWAP1 RETURN JUMPDEST PUSH2 0x135 PUSH2 0x2C4 JUMP JUMPDEST PUSH1 0x40 MLOAD PUSH2 0x142 SWAP2 SWAP1 PUSH2 0x622 JUMP JUMPDEST PUSH1 0x40 MLOAD DUP1 SWAP2 SUB SWAP1 RETURN JUMPDEST PUSH2 0x165 PUSH1 0x4 DUP1 CALLDATASIZE SUB DUP2 ADD SWAP1 PUSH2 0x160 SWAP2 SWAP1 PUSH2 0x4DA JUMP JUMPDEST PUSH2 0x2CA JUMP JUMPDEST PUSH1 0x40 MLOAD PUSH2 0x172 SWAP2 SWAP1 PUSH2 0x63D JUMP JUMPDEST PUSH1 0x40 MLOAD DUP1 SWAP2 SUB SWAP1 RETURN JUMPDEST PUSH2 0x195 PUSH1 0x4 DUP1 CALLDATASIZE SUB DUP2 ADD SWAP1 PUSH2 0x190 SWAP2 SWAP1 PUSH2 0x4DA JUMP JUMPDEST PUSH2 0x376 JUMP JUMPDEST PUSH1 0x40 MLOAD PUSH2 0x1A2 SWAP2 SWAP1 PUSH2 0x65F JUMP JUMPDEST PUSH1 0x40 MLOAD DUP1 SWAP2 SUB SWAP1 RETURN JUMPDEST PUSH2 0x1B3 PUSH2 0x39A JUMP JUMPDEST STOP JUMPDEST PUSH2 0x1BD PUSH2 0x3E0 JUMP JUMPDEST PUSH1 0x40 MLOAD PUSH2 0x1CA SWAP2 SWAP1 PUSH2 0x5EC JUMP JUMPDEST PUSH1 0x40 MLOAD DUP1 SWAP2 SUB SWAP1 RETURN JUMPDEST PUSH2 0x1DB PUSH2 0x406 JUMP JUMPDEST PUSH1 0x40 MLOAD PUSH2 0x1E8 SWAP2 SWAP1 PUSH2 0x65F JUMP JUMPDEST PUSH1 0x40 MLOAD DUP1 SWAP2 SUB SWAP1 RETURN JUMPDEST PUSH1 0x4 DUP1 SLOAD PUSH2 0x1FE SWAP1 PUSH2 0x78B JUMP JUMPDEST DUP1 PUSH1 0x1F ADD PUSH1 0x20 DUP1 SWAP2 DIV MUL PUSH1 0x20 ADD PUSH1 0x40 MLOAD SWAP1 DUP2 ADD PUSH1 0x40 MSTORE DUP1 SWAP3 SWAP2 SWAP1 DUP2 DUP2 MSTORE PUSH1 0x20 ADD DUP3 DUP1 SLOAD PUSH2 0x22A SWAP1 PUSH2 0x78B JUMP JUMPDEST DUP1 ISZERO PUSH2 0x277 JUMPI DUP1 PUSH1 0x1F LT PUSH2 0x24C JUMPI PUSH2 0x100 DUP1 DUP4 SLOAD DIV MUL DUP4 MSTORE SWAP2 PUSH1 0x20 ADD SWAP2 PUSH2 0x277 JUMP JUMPDEST DUP3 ADD SWAP2 SWAP1 PUSH1 0x0 MSTORE PUSH1 0x20 PUSH1 0x0 KECCAK256 SWAP1 JUMPDEST DUP2 SLOAD DUP2 MSTORE SWAP1 PUSH1 0x1 ADD SWAP1 PUSH1 0x20 ADD DUP1 DUP4 GT PUSH2 0x25A JUMPI DUP3 SWAP1 SUB PUSH1 0x1F AND DUP3 ADD SWAP2 JUMPDEST POP POP POP POP POP DUP2 JUMP JUMPDEST PUSH1 0x8 DUP2 DUP1 MLOAD PUSH1 0x20 DUP2 ADD DUP3 ADD DUP1 MLOAD DUP5 DUP3 MSTORE PUSH1 0x20 DUP4 ADD PUSH1 0x20 DUP6 ADD KECCAK256 DUP2 DUP4 MSTORE DUP1 SWAP6 POP POP POP POP POP POP PUSH1 0x0 SWAP2 POP SWAP1 POP SLOAD DUP2 JUMP JUMPDEST PUSH1 0x0 DUP1 SLOAD SWAP1 PUSH2 0x100 EXP SWAP1 DIV PUSH1 0xFF AND DUP2 JUMP JUMPDEST PUSH1 0x3 SLOAD DUP2 JUMP JUMPDEST PUSH1 0x1 SLOAD DUP2 JUMP JUMPDEST PUSH1 0x7 DUP2 DUP2 SLOAD DUP2 LT PUSH2 0x2DA JUMPI PUSH1 0x0 DUP1 REVERT JUMPDEST SWAP1 PUSH1 0x0 MSTORE PUSH1 0x20 PUSH1 0x0 KECCAK256 ADD PUSH1 0x0 SWAP2 POP SWAP1 POP DUP1 SLOAD PUSH2 0x2F5 SWAP1 PUSH2 0x78B JUMP JUMPDEST DUP1 PUSH1 0x1F ADD PUSH1 0x20 DUP1 SWAP2 DIV MUL PUSH1 0x20 ADD PUSH1 0x40 MLOAD SWAP1 DUP2 ADD PUSH1 0x40 MSTORE DUP1 SWAP3 SWAP2 SWAP1 DUP2 DUP2 MSTORE PUSH1 0x20 ADD DUP3 DUP1 SLOAD PUSH2 0x321 SWAP1 PUSH2 0x78B JUMP JUMPDEST DUP1 ISZERO PUSH2 0x36E JUMPI DUP1 PUSH1 0x1F LT PUSH2 0x343 JUMPI PUSH2 0x100 DUP1 DUP4 SLOAD DIV MUL DUP4 MSTORE SWAP2 PUSH1 0x20 ADD SWAP2 PUSH2 0x36E JUMP JUMPDEST DUP3 ADD SWAP2 SWAP1 PUSH1 0x0 MSTORE PUSH1 0x20 PUSH1 0x0 KECCAK256 SWAP1 JUMPDEST DUP2 SLOAD DUP2 MSTORE SWAP1 PUSH1 0x1 ADD SWAP1 PUSH1 0x20 ADD DUP1 DUP4 GT PUSH2 0x351 JUMPI DUP3 SWAP1 SUB PUSH1 0x1F AND DUP3 ADD SWAP2 JUMPDEST POP POP POP POP POP DUP2 JUMP JUMPDEST PUSH1 0x6 DUP2 DUP2 SLOAD DUP2 LT PUSH2 0x386 JUMPI PUSH1 0x0 DUP1 REVERT JUMPDEST SWAP1 PUSH1 0x0 MSTORE PUSH1 0x20 PUSH1 0x0 KECCAK256 ADD PUSH1 0x0 SWAP2 POP SWAP1 POP SLOAD DUP2 JUMP JUMPDEST PUSH1 0x18 PUSH1 0x8 PUSH1 0x40 MLOAD PUSH2 0x3AA SWAP1 PUSH2 0x5D7 JUMP JUMPDEST SWAP1 DUP2 MSTORE PUSH1 0x20 ADD PUSH1 0x40 MLOAD DUP1 SWAP2 SUB SWAP1 KECCAK256 DUP2 SWAP1 SSTORE POP PUSH1 0x2 PUSH1 0x8 PUSH1 0x40 MLOAD PUSH2 0x3CC SWAP1 PUSH2 0x5C2 JUMP JUMPDEST SWAP1 DUP2 MSTORE PUSH1 0x20 ADD PUSH1 0x40 MLOAD DUP1 SWAP2 SUB SWAP1 KECCAK256 DUP2 SWAP1 SSTORE POP JUMP JUMPDEST PUSH1 0x5 PUSH1 0x0 SWAP1 SLOAD SWAP1 PUSH2 0x100 EXP SWAP1 DIV PUSH20 0xFFFFFFFFFFFFFFFFFFFFFFFFFFFFFFFFFFFFFFFF AND DUP2 JUMP JUMPDEST PUSH1 0x2 SLOAD DUP2 JUMP JUMPDEST PUSH1 0x0 PUSH2 0x41F PUSH2 0x41A DUP5 PUSH2 0x69F JUMP JUMPDEST PUSH2 0x67A JUMP JUMPDEST SWAP1 POP DUP3 DUP2 MSTORE PUSH1 0x20 DUP2 ADD DUP5 DUP5 DUP5 ADD GT ISZERO PUSH2 0x43B JUMPI PUSH2 0x43A PUSH2 0x851 JUMP JUMPDEST JUMPDEST PUSH2 0x446 DUP5 DUP3 DUP6 PUSH2 0x749 JUMP JUMPDEST POP SWAP4 SWAP3 POP POP POP JUMP JUMPDEST PUSH1 0x0 DUP3 PUSH1 0x1F DUP4 ADD SLT PUSH2 0x463 JUMPI PUSH2 0x462 PUSH2 0x84C JUMP JUMPDEST JUMPDEST DUP2 CALLDATALOAD PUSH2 0x473 DUP5 DUP3 PUSH1 0x20 DUP7 ADD PUSH2 0x40C JUMP JUMPDEST SWAP2 POP POP SWAP3 SWAP2 POP POP JUMP JUMPDEST PUSH1 0x0 DUP2 CALLDATALOAD SWAP1 POP PUSH2 0x48B DUP2 PUSH2 0x8C3 JUMP JUMPDEST SWAP3 SWAP2 POP POP JUMP JUMPDEST PUSH1 0x0 PUSH1 0x20 DUP3 DUP5 SUB SLT ISZERO PUSH2 0x4A7 JUMPI PUSH2 0x4A6 PUSH2 0x85B JUMP JUMPDEST JUMPDEST PUSH1 0x0 DUP3 ADD CALLDATALOAD PUSH8 0xFFFFFFFFFFFFFFFF DUP2 GT ISZERO PUSH2 0x4C5 JUMPI PUSH2 0x4C4 PUSH2 0x856 JUMP JUMPDEST JUMPDEST PUSH2 0x4D1 DUP5 DUP3 DUP6 ADD PUSH2 0x44E JUMP JUMPDEST SWAP2 POP POP SWAP3 SWAP2 POP POP JUMP JUMPDEST PUSH1 0x0 PUSH1 0x20 DUP3 DUP5 SUB SLT ISZERO PUSH2 0x4F0 JUMPI PUSH2 0x4EF PUSH2 0x85B JUMP JUMPDEST JUMPDEST PUSH1 0x0 PUSH2 0x4FE DUP5 DUP3 DUP6 ADD PUSH2 0x47C JUMP JUMPDEST SWAP2 POP POP SWAP3 SWAP2 POP POP JUMP JUMPDEST PUSH2 0x510 DUP2 PUSH2 0x6F7 JUMP JUMPDEST DUP3 MSTORE POP POP JUMP JUMPDEST PUSH2 0x51F DUP2 PUSH2 0x709 JUMP JUMPDEST DUP3 MSTORE POP POP JUMP JUMPDEST PUSH2 0x52E DUP2 PUSH2 0x715 JUMP JUMPDEST DUP3 MSTORE POP POP JUMP JUMPDEST PUSH1 0x0 PUSH2 0x53F DUP3 PUSH2 0x6D0 JUMP JUMPDEST PUSH2 0x549 DUP2 DUP6 PUSH2 0x6DB JUMP JUMPDEST SWAP4 POP PUSH2 0x559 DUP2 DUP6 PUSH1 0x20 DUP7 ADD PUSH2 0x758 JUMP JUMPDEST PUSH2 0x562 DUP2 PUSH2 0x860 JUMP JUMPDEST DUP5 ADD SWAP2 POP POP SWAP3 SWAP2 POP POP JUMP JUMPDEST PUSH1 0x0 PUSH2 0x57A PUSH1 0x4 DUP4 PUSH2 0x6EC JUMP JUMPDEST SWAP2 POP PUSH2 0x585 DUP3 PUSH2 0x871 JUMP JUMPDEST PUSH1 0x4 DUP3 ADD SWAP1 POP SWAP2 SWAP1 POP JUMP JUMPDEST PUSH1 0x0 PUSH2 0x59D PUSH1 0x5 DUP4 PUSH2 0x6EC JUMP JUMPDEST SWAP2 POP PUSH2 0x5A8 DUP3 PUSH2 0x89A JUMP JUMPDEST PUSH1 0x5 DUP3 ADD SWAP1 POP SWAP2 SWAP1 POP JUMP JUMPDEST PUSH2 0x5BC DUP2 PUSH2 0x73F JUMP JUMPDEST DUP3 MSTORE POP POP JUMP JUMPDEST PUSH1 0x0 PUSH2 0x5CD DUP3 PUSH2 0x56D JUMP JUMPDEST SWAP2 POP DUP2 SWAP1 POP SWAP2 SWAP1 POP JUMP JUMPDEST PUSH1 0x0 PUSH2 0x5E2 DUP3 PUSH2 0x590 JUMP JUMPDEST SWAP2 POP DUP2 SWAP1 POP SWAP2 SWAP1 POP JUMP JUMPDEST PUSH1 0x0 PUSH1 0x20 DUP3 ADD SWAP1 POP PUSH2 0x601 PUSH1 0x0 DUP4 ADD DUP5 PUSH2 0x507 JUMP JUMPDEST SWAP3 SWAP2 POP POP JUMP JUMPDEST PUSH1 0x0 PUSH1 0x20 DUP3 ADD SWAP1 POP PUSH2 0x61C PUSH1 0x0 DUP4 ADD DUP5 PUSH2 0x516 JUMP JUMPDEST SWAP3 SWAP2 POP POP JUMP JUMPDEST PUSH1 0x0 PUSH1 0x20 DUP3 ADD SWAP1 POP PUSH2 0x637 PUSH1 0x0 DUP4 ADD DUP5 PUSH2 0x525 JUMP JUMPDEST SWAP3 SWAP2 POP POP JUMP JUMPDEST PUSH1 0x0 PUSH1 0x20 DUP3 ADD SWAP1 POP DUP2 DUP2 SUB PUSH1 0x0 DUP4 ADD MSTORE PUSH2 0x657 DUP2 DUP5 PUSH2 0x534 JUMP JUMPDEST SWAP1 POP SWAP3 SWAP2 POP POP JUMP JUMPDEST PUSH1 0x0 PUSH1 0x20 DUP3 ADD SWAP1 POP PUSH2 0x674 PUSH1 0x0 DUP4 ADD DUP5 PUSH2 0x5B3 JUMP JUMPDEST SWAP3 SWAP2 POP POP JUMP JUMPDEST PUSH1 0x0 PUSH2 0x684 PUSH2 0x695 JUMP JUMPDEST SWAP1 POP PUSH2 0x690 DUP3 DUP3 PUSH2 0x7BD JUMP JUMPDEST SWAP2 SWAP1 POP JUMP JUMPDEST PUSH1 0x0 PUSH1 0x40 MLOAD SWAP1 POP SWAP1 JUMP JUMPDEST PUSH1 0x0 PUSH8 0xFFFFFFFFFFFFFFFF DUP3 GT ISZERO PUSH2 0x6BA JUMPI PUSH2 0x6B9 PUSH2 0x81D JUMP JUMPDEST JUMPDEST PUSH2 0x6C3 DUP3 PUSH2 0x860 JUMP JUMPDEST SWAP1 POP PUSH1 0x20 DUP2 ADD SWAP1 POP SWAP2 SWAP1 POP JUMP JUMPDEST PUSH1 0x0 DUP2 MLOAD SWAP1 POP SWAP2 SWAP1 POP JUMP JUMPDEST PUSH1 0x0 DUP3 DUP3 MSTORE PUSH1 0x20 DUP3 ADD SWAP1 POP SWAP3 SWAP2 POP POP JUMP JUMPDEST PUSH1 0x0 DUP2 SWAP1 POP SWAP3 SWAP2 POP POP JUMP JUMPDEST PUSH1 0x0 PUSH2 0x702 DUP3 PUSH2 0x71F JUMP JUMPDEST SWAP1 POP SWAP2 SWAP1 POP JUMP JUMPDEST PUSH1 0x0 DUP2 ISZERO ISZERO SWAP1 POP SWAP2 SWAP1 POP JUMP JUMPDEST PUSH1 0x0 DUP2 SWAP1 POP SWAP2 SWAP1 POP JUMP JUMPDEST PUSH1 0x0 PUSH20 0xFFFFFFFFFFFFFFFFFFFFFFFFFFFFFFFFFFFFFFFF DUP3 AND SWAP1 POP SWAP2 SWAP1 POP JUMP JUMPDEST PUSH1 0x0 DUP2 SWAP1 POP SWAP2 SWAP1 POP JUMP JUMPDEST DUP3 DUP2 DUP4 CALLDATACOPY PUSH1 0x0 DUP4 DUP4 ADD MSTORE POP POP POP JUMP JUMPDEST PUSH1 0x0 JUMPDEST DUP4 DUP2 LT ISZERO PUSH2 0x776 JUMPI DUP1 DUP3 ADD MLOAD DUP2 DUP5 ADD MSTORE PUSH1 0x20 DUP2 ADD SWAP1 POP PUSH2 0x75B JUMP JUMPDEST DUP4 DUP2 GT ISZERO PUSH2 0x785 JUMPI PUSH1 0x0 DUP5 DUP5 ADD MSTORE JUMPDEST POP POP POP POP JUMP JUMPDEST PUSH1 0x0 PUSH1 0x2 DUP3 DIV SWAP1 POP PUSH1 0x1 DUP3 AND DUP1 PUSH2 0x7A3 JUMPI PUSH1 0x7F DUP3 AND SWAP2 POP JUMPDEST PUSH1 0x20 DUP3 LT DUP2 EQ ISZERO PUSH2 0x7B7 JUMPI PUSH2 0x7B6 PUSH2 0x7EE JUMP JUMPDEST JUMPDEST POP SWAP2 SWAP1 POP JUMP JUMPDEST PUSH2 0x7C6 DUP3 PUSH2 0x860 JUMP JUMPDEST DUP2 ADD DUP2 DUP2 LT PUSH8 0xFFFFFFFFFFFFFFFF DUP3 GT OR ISZERO PUSH2 0x7E5 JUMPI PUSH2 0x7E4 PUSH2 0x81D JUMP JUMPDEST JUMPDEST DUP1 PUSH1 0x40 MSTORE POP POP POP JUMP JUMPDEST PUSH32 0x4E487B7100000000000000000000000000000000000000000000000000000000 PUSH1 0x0 MSTORE PUSH1 0x22 PUSH1 0x4 MSTORE PUSH1 0x24 PUSH1 0x0 REVERT JUMPDEST PUSH32 0x4E487B7100000000000000000000000000000000000000000000000000000000 PUSH1 0x0 MSTORE PUSH1 0x41 PUSH1 0x4 MSTORE PUSH1 0x24 PUSH1 0x0 REVERT JUMPDEST PUSH1 0x0 DUP1 REVERT JUMPDEST PUSH1 0x0 DUP1 REVERT JUMPDEST PUSH1 0x0 DUP1 REVERT JUMPDEST PUSH1 0x0 DUP1 REVERT JUMPDEST PUSH1 0x0 PUSH1 0x1F NOT PUSH1 0x1F DUP4 ADD AND SWAP1 POP SWAP2 SWAP1 POP JUMP JUMPDEST PUSH32 0x4261627900000000000000000000000000000000000000000000000000000000 PUSH1 0x0 DUP3 ADD MSTORE POP JUMP JUMPDEST PUSH32 0x4579797562000000000000000000000000000000000000000000000000000000 PUSH1 0x0 DUP3 ADD MSTORE POP JUMP JUMPDEST PUSH2 0x8CC DUP2 PUSH2 0x73F JUMP JUMPDEST DUP2 EQ PUSH2 0x8D7 JUMPI PUSH1 0x0 DUP1 REVERT JUMPDEST POP JUMP INVALID LOG2 PUSH5 0x6970667358 0x22 SLT KECCAK256 0xF6 JUMP LOG0 0xC6 STOP 0xCD BYTE 0xAC 0xE7 0x4B ADDMOD SLT 0xB2 0xA7 MUL DIFFICULTY PUSH5 0x350590C525 BASEFEE 0xAA 0xEB 0xF8 GASLIMIT 0x26 0xCF 0x1F SWAP1 0xE3 PUSH5 0x736F6C6343 STOP ADDMOD SMOD STOP CALLER "
				},
				"gasEstimates": {
					"creation": {
						"codeDepositCost": "464000",
						"executionCost": "infinite",
						"totalCost": "infinite"
					},
					"external": {
						"addElementToTheMapping()": "infinite",
						"contractAddress()": "2580",
						"example()": "2496",
						"letters(uint256)": "infinite",
						"name()": "infinite",
						"nameAndNumber(string)": "infinite",
						"numbers(uint256)": "infinite",
						"ten()": "2518",
						"trueOrFalse()": "2513",
						"twenty()": "2517"
					}
				},
				"methodIdentifiers": {
					"addElementToTheMapping()": "e13a9a32",
					"contractAddress()": "f6b4dfb4",
					"example()": "54353f2f",
					"letters(uint256)": "a2a0e4c3",
					"name()": "06fdde03",
					"nameAndNumber(string)": "0d8e8ff0",
					"numbers(uint256)": "d39fa233",
					"ten()": "643ceff9",
					"trueOrFalse()": "3888624b",
					"twenty()": "f8af9dd2"
				}
			},
			"storageLayout": {
				"storage": [
					{
						"astId": 3,
						"contract": "contracts/Variables.sol:Variables",
						"label": "trueOrFalse",
						"offset": 0,
						"slot": "0",
						"type": "t_bool"
					},
					{
						"astId": 5,
						"contract": "contracts/Variables.sol:Variables",
						"label": "ten",
						"offset": 0,
						"slot": "1",
						"type": "t_int256"
					},
					{
						"astId": 8,
						"contract": "contracts/Variables.sol:Variables",
						"label": "twenty",
						"offset": 0,
						"slot": "2",
						"type": "t_uint256"
					},
					{
						"astId": 11,
						"contract": "contracts/Variables.sol:Variables",
						"label": "example",
						"offset": 0,
						"slot": "3",
						"type": "t_uint256"
					},
					{
						"astId": 13,
						"contract": "contracts/Variables.sol:Variables",
						"label": "name",
						"offset": 0,
						"slot": "4",
						"type": "t_string_storage"
					},
					{
						"astId": 19,
						"contract": "contracts/Variables.sol:Variables",
						"label": "contractAddress",
						"offset": 0,
						"slot": "5",
						"type": "t_address"
					},
					{
						"astId": 28,
						"contract": "contracts/Variables.sol:Variables",
						"label": "numbers",
						"offset": 0,
						"slot": "6",
						"type": "t_array(t_uint256)dyn_storage"
					},
					{
						"astId": 36,
						"contract": "contracts/Variables.sol:Variables",
						"label": "letters",
						"offset": 0,
						"slot": "7",
						"type": "t_array(t_string_storage)dyn_storage"
					},
					{
						"astId": 40,
						"contract": "contracts/Variables.sol:Variables",
						"label": "nameAndNumber",
						"offset": 0,
						"slot": "8",
						"type": "t_mapping(t_string_memory_ptr,t_uint256)"
					}
				],
				"types": {
					"t_address": {
						"encoding": "inplace",
						"label": "address",
						"numberOfBytes": "20"
					},
					"t_array(t_string_storage)dyn_storage": {
						"base": "t_string_storage",
						"encoding": "dynamic_array",
						"label": "string[]",
						"numberOfBytes": "32"
					},
					"t_array(t_uint256)dyn_storage": {
						"base": "t_uint256",
						"encoding": "dynamic_array",
						"label": "uint256[]",
						"numberOfBytes": "32"
					},
					"t_bool": {
						"encoding": "inplace",
						"label": "bool",
						"numberOfBytes": "1"
					},
					"t_int256": {
						"encoding": "inplace",
						"label": "int256",
						"numberOfBytes": "32"
					},
					"t_mapping(t_string_memory_ptr,t_uint256)": {
						"encoding": "mapping",
						"key": "t_string_memory_ptr",
						"label": "mapping(string => uint256)",
						"numberOfBytes": "32",
						"value": "t_uint256"
					},
					"t_string_memory_ptr": {
						"encoding": "bytes",
						"label": "string",
						"numberOfBytes": "32"
					},
					"t_string_storage": {
						"encoding": "bytes",
						"label": "string",
						"numberOfBytes": "32"
					},
					"t_uint256": {
						"encoding": "inplace",
						"label": "uint256",
						"numberOfBytes": "32"
					}
				}
			},
			"userdoc": {
				"kind": "user",
				"methods": {},
				"version": 1
			}
		}
	}
}