{
	"contracts/Calculator.sol": {
		"Calculator": {
			"abi": [
				{
					"inputs": [
						{
							"internalType": "uint256",
							"name": "num1",
							"type": "uint256"
						},
						{
							"internalType": "uint256",
							"name": "num2",
							"type": "uint256"
						}
					],
					"name": "addition",
					"outputs": [],
					"stateMutability": "nonpayable",
					"type": "function"
				},
				{
					"inputs": [],
					"name": "additionResult",
					"outputs": [
						{
							"internalType": "uint256",
							"name": "",
							"type": "uint256"
						}
					],
					"stateMutability": "view",
					"type": "function"
				},
				{
					"inputs": [
						{
							"internalType": "uint256",
							"name": "num1",
							"type": "uint256"
						},
						{
							"internalType": "uint256",
							"name": "num2",
							"type": "uint256"
						}
					],
					"name": "division",
					"outputs": [
						{
							"internalType": "uint256",
							"name": "",
							"type": "uint256"
						}
					],
					"stateMutability": "pure",
					"type": "function"
				},
				{
					"inputs": [],
					"name": "divisionResult",
					"outputs": [
						{
							"internalType": "uint256",
							"name": "",
							"type": "uint256"
						}
					],
					"stateMutability": "view",
					"type": "function"
				},
				{
					"inputs": [
						{
							"internalType": "uint256",
							"name": "num1",
							"type": "uint256"
						},
						{
							"internalType": "uint256",
							"name": "num2",
							"type": "uint256"
						}
					],
					"name": "multiplication",
					"outputs": [
						{
							"internalType": "uint256",
							"name": "",
							"type": "uint256"
						}
					],
					"stateMutability": "pure",
					"type": "function"
				},
				{
					"inputs": [],
					"name": "multiplicationResult",
					"outputs": [
						{
							"internalType": "uint256",
							"name": "",
							"type": "uint256"
						}
					],
					"stateMutability": "view",
					"type": "function"
				},
				{
					"inputs": [
						{
							"internalType": "uint256",
							"name": "num1",
							"type": "uint256"
						},
						{
							"internalType": "uint256",
							"name": "num2",
							"type": "uint256"
						}
					],
					"name": "subtraction",
					"outputs": [],
					"stateMutability": "nonpayable",
					"type": "function"
				},
				{
					"inputs": [],
					"name": "subtractionResult",
					"outputs": [
						{
							"internalType": "uint256",
							"name": "",
							"type": "uint256"
						}
					],
					"stateMutability": "view",
					"type": "function"
				}
			],
			"devdoc": {
				"kind": "dev",
				"methods": {},
				"version": 1
			},
			"evm": {
				"assembly": "    /* \"contracts/Calculator.sol\":70:803  contract Calculator{... */\n  mstore(0x40, 0x80)\n  callvalue\n  dup1\n  iszero\n  tag_1\n  jumpi\n  0x00\n  dup1\n  revert\ntag_1:\n  pop\n  dataSize(sub_0)\n  dup1\n  dataOffset(sub_0)\n  0x00\n  codecopy\n  0x00\n  return\nstop\n\nsub_0: assembly {\n        /* \"contracts/Calculator.sol\":70:803  contract Calculator{... */\n      mstore(0x40, 0x80)\n      callvalue\n      dup1\n      iszero\n      tag_1\n      jumpi\n      0x00\n      dup1\n      revert\n    tag_1:\n      pop\n      jumpi(tag_2, lt(calldatasize, 0x04))\n      shr(0xe0, calldataload(0x00))\n      dup1\n      0xa9936cd2\n      gt\n      tag_11\n      jumpi\n      dup1\n      0xa9936cd2\n      eq\n      tag_7\n      jumpi\n      dup1\n      0xbbe562b0\n      eq\n      tag_8\n      jumpi\n      dup1\n      0xdc68f271\n      eq\n      tag_9\n      jumpi\n      dup1\n      0xe0068052\n      eq\n      tag_10\n      jumpi\n      jump(tag_2)\n    tag_11:\n      dup1\n      0x4c4763ce\n      eq\n      tag_3\n      jumpi\n      dup1\n      0x54f363a3\n      eq\n      tag_4\n      jumpi\n      dup1\n      0x61cffce8\n      eq\n      tag_5\n      jumpi\n      dup1\n      0x900683d0\n      eq\n      tag_6\n      jumpi\n    tag_2:\n      0x00\n      dup1\n      revert\n        /* \"contracts/Calculator.sol\":163:195  uint public multiplicationResult */\n    tag_3:\n      tag_12\n      tag_13\n      jump\t// in\n    tag_12:\n      mload(0x40)\n      tag_14\n      swap2\n      swap1\n      tag_15\n      jump\t// in\n    tag_14:\n      mload(0x40)\n      dup1\n      swap2\n      sub\n      swap1\n      return\n        /* \"contracts/Calculator.sol\":234:394  function addition(uint num1, uint num2) public {... */\n    tag_4:\n      tag_16\n      0x04\n      dup1\n      calldatasize\n      sub\n      dup2\n      add\n      swap1\n      tag_17\n      swap2\n      swap1\n      tag_18\n      jump\t// in\n    tag_17:\n      tag_19\n      jump\t// in\n    tag_16:\n      stop\n        /* \"contracts/Calculator.sol\":96:122  uint public additionResult */\n    tag_5:\n      tag_20\n      tag_21\n      jump\t// in\n    tag_20:\n      mload(0x40)\n      tag_22\n      swap2\n      swap1\n      tag_15\n      jump\t// in\n    tag_22:\n      mload(0x40)\n      dup1\n      swap2\n      sub\n      swap1\n      return\n        /* \"contracts/Calculator.sol\":401:511  function subtraction(uint num1, uint num2) public {... */\n    tag_6:\n      tag_23\n      0x04\n      dup1\n      calldatasize\n      sub\n      dup2\n      add\n      swap1\n      tag_24\n      swap2\n      swap1\n      tag_18\n      jump\t// in\n    tag_24:\n      tag_25\n      jump\t// in\n    tag_23:\n      stop\n        /* \"contracts/Calculator.sol\":201:227  uint public divisionResult */\n    tag_7:\n      tag_26\n      tag_27\n      jump\t// in\n    tag_26:\n      mload(0x40)\n      tag_28\n      swap2\n      swap1\n      tag_15\n      jump\t// in\n    tag_28:\n      mload(0x40)\n      dup1\n      swap2\n      sub\n      swap1\n      return\n        /* \"contracts/Calculator.sol\":517:655  function multiplication(uint num1, uint num2) public pure returns(uint){... */\n    tag_8:\n      tag_29\n      0x04\n      dup1\n      calldatasize\n      sub\n      dup2\n      add\n      swap1\n      tag_30\n      swap2\n      swap1\n      tag_18\n      jump\t// in\n    tag_30:\n      tag_31\n      jump\t// in\n    tag_29:\n      mload(0x40)\n      tag_32\n      swap2\n      swap1\n      tag_15\n      jump\t// in\n    tag_32:\n      mload(0x40)\n      dup1\n      swap2\n      sub\n      swap1\n      return\n        /* \"contracts/Calculator.sol\":128:157  uint public subtractionResult */\n    tag_9:\n      tag_33\n      tag_34\n      jump\t// in\n    tag_33:\n      mload(0x40)\n      tag_35\n      swap2\n      swap1\n      tag_15\n      jump\t// in\n    tag_35:\n      mload(0x40)\n      dup1\n      swap2\n      sub\n      swap1\n      return\n        /* \"contracts/Calculator.sol\":661:801  function division(uint num1, uint num2) public pure returns(uint){... */\n    tag_10:\n      tag_36\n      0x04\n      dup1\n      calldatasize\n      sub\n      dup2\n      add\n      swap1\n      tag_37\n      swap2\n      swap1\n      tag_18\n      jump\t// in\n    tag_37:\n      tag_38\n      jump\t// in\n    tag_36:\n      mload(0x40)\n      tag_39\n      swap2\n      swap1\n      tag_15\n      jump\t// in\n    tag_39:\n      mload(0x40)\n      dup1\n      swap2\n      sub\n      swap1\n      return\n        /* \"contracts/Calculator.sol\":163:195  uint public multiplicationResult */\n    tag_13:\n      sload(0x02)\n      dup2\n      jump\t// out\n        /* \"contracts/Calculator.sol\":234:394  function addition(uint num1, uint num2) public {... */\n    tag_19:\n        /* \"contracts/Calculator.sol\":305:307  10 */\n      0x0a\n        /* \"contracts/Calculator.sol\":300:304  num1 */\n      dup3\n        /* \"contracts/Calculator.sol\":300:307  num1>10 */\n      gt\n        /* \"contracts/Calculator.sol\":292:339  require(num1>10,\"Num1 must be greater than 10\") */\n      tag_41\n      jumpi\n      mload(0x40)\n      0x08c379a000000000000000000000000000000000000000000000000000000000\n      dup2\n      mstore\n      0x04\n      add\n      tag_42\n      swap1\n      tag_43\n      jump\t// in\n    tag_42:\n      mload(0x40)\n      dup1\n      swap2\n      sub\n      swap1\n      revert\n    tag_41:\n        /* \"contracts/Calculator.sol\":382:386  num2 */\n      dup1\n        /* \"contracts/Calculator.sol\":375:379  num1 */\n      dup3\n        /* \"contracts/Calculator.sol\":375:386  num1 + num2 */\n      tag_44\n      swap2\n      swap1\n      tag_45\n      jump\t// in\n    tag_44:\n        /* \"contracts/Calculator.sol\":358:372  additionResult */\n      0x00\n        /* \"contracts/Calculator.sol\":358:386  additionResult = num1 + num2 */\n      dup2\n      swap1\n      sstore\n      pop\n        /* \"contracts/Calculator.sol\":234:394  function addition(uint num1, uint num2) public {... */\n      pop\n      pop\n      jump\t// out\n        /* \"contracts/Calculator.sol\":96:122  uint public additionResult */\n    tag_21:\n      sload(0x00)\n      dup2\n      jump\t// out\n        /* \"contracts/Calculator.sol\":401:511  function subtraction(uint num1, uint num2) public {... */\n    tag_25:\n        /* \"contracts/Calculator.sol\":489:493  num2 */\n      dup1\n        /* \"contracts/Calculator.sol\":482:486  num1 */\n      dup3\n        /* \"contracts/Calculator.sol\":482:493  num1 - num2 */\n      tag_47\n      swap2\n      swap1\n      tag_48\n      jump\t// in\n    tag_47:\n        /* \"contracts/Calculator.sol\":462:479  subtractionResult */\n      0x01\n        /* \"contracts/Calculator.sol\":462:493  subtractionResult = num1 - num2 */\n      dup2\n      swap1\n      sstore\n      pop\n        /* \"contracts/Calculator.sol\":401:511  function subtraction(uint num1, uint num2) public {... */\n      pop\n      pop\n      jump\t// out\n        /* \"contracts/Calculator.sol\":201:227  uint public divisionResult */\n    tag_27:\n      sload(0x03)\n      dup2\n      jump\t// out\n        /* \"contracts/Calculator.sol\":517:655  function multiplication(uint num1, uint num2) public pure returns(uint){... */\n    tag_31:\n        /* \"contracts/Calculator.sol\":583:587  uint */\n      0x00\n        /* \"contracts/Calculator.sol\":599:610  uint result */\n      dup1\n        /* \"contracts/Calculator.sol\":620:624  num2 */\n      dup3\n        /* \"contracts/Calculator.sol\":613:617  num1 */\n      dup5\n        /* \"contracts/Calculator.sol\":613:624  num1 * num2 */\n      tag_50\n      swap2\n      swap1\n      tag_51\n      jump\t// in\n    tag_50:\n        /* \"contracts/Calculator.sol\":599:624  uint result = num1 * num2 */\n      swap1\n      pop\n        /* \"contracts/Calculator.sol\":642:648  result */\n      dup1\n        /* \"contracts/Calculator.sol\":635:648  return result */\n      swap2\n      pop\n      pop\n        /* \"contracts/Calculator.sol\":517:655  function multiplication(uint num1, uint num2) public pure returns(uint){... */\n      swap3\n      swap2\n      pop\n      pop\n      jump\t// out\n        /* \"contracts/Calculator.sol\":128:157  uint public subtractionResult */\n    tag_34:\n      sload(0x01)\n      dup2\n      jump\t// out\n        /* \"contracts/Calculator.sol\":661:801  function division(uint num1, uint num2) public pure returns(uint){... */\n    tag_38:\n        /* \"contracts/Calculator.sol\":721:725  uint */\n      0x00\n        /* \"contracts/Calculator.sol\":745:756  uint result */\n      dup1\n        /* \"contracts/Calculator.sol\":766:770  num2 */\n      dup3\n        /* \"contracts/Calculator.sol\":759:763  num1 */\n      dup5\n        /* \"contracts/Calculator.sol\":759:770  num1 / num2 */\n      tag_53\n      swap2\n      swap1\n      tag_54\n      jump\t// in\n    tag_53:\n        /* \"contracts/Calculator.sol\":745:770  uint result = num1 / num2 */\n      swap1\n      pop\n        /* \"contracts/Calculator.sol\":788:794  result */\n      dup1\n        /* \"contracts/Calculator.sol\":781:794  return result */\n      swap2\n      pop\n      pop\n        /* \"contracts/Calculator.sol\":661:801  function division(uint num1, uint num2) public pure returns(uint){... */\n      swap3\n      swap2\n      pop\n      pop\n      jump\t// out\n        /* \"#utility.yul\":7:146   */\n    tag_56:\n        /* \"#utility.yul\":53:58   */\n      0x00\n        /* \"#utility.yul\":91:97   */\n      dup2\n        /* \"#utility.yul\":78:98   */\n      calldataload\n        /* \"#utility.yul\":69:98   */\n      swap1\n      pop\n        /* \"#utility.yul\":107:140   */\n      tag_58\n        /* \"#utility.yul\":134:139   */\n      dup2\n        /* \"#utility.yul\":107:140   */\n      tag_59\n      jump\t// in\n    tag_58:\n        /* \"#utility.yul\":7:146   */\n      swap3\n      swap2\n      pop\n      pop\n      jump\t// out\n        /* \"#utility.yul\":152:626   */\n    tag_18:\n        /* \"#utility.yul\":220:226   */\n      0x00\n        /* \"#utility.yul\":228:234   */\n      dup1\n        /* \"#utility.yul\":277:279   */\n      0x40\n        /* \"#utility.yul\":265:274   */\n      dup4\n        /* \"#utility.yul\":256:263   */\n      dup6\n        /* \"#utility.yul\":252:275   */\n      sub\n        /* \"#utility.yul\":248:280   */\n      slt\n        /* \"#utility.yul\":245:364   */\n      iszero\n      tag_61\n      jumpi\n        /* \"#utility.yul\":283:362   */\n      tag_62\n      tag_63\n      jump\t// in\n    tag_62:\n        /* \"#utility.yul\":245:364   */\n    tag_61:\n        /* \"#utility.yul\":403:404   */\n      0x00\n        /* \"#utility.yul\":428:481   */\n      tag_64\n        /* \"#utility.yul\":473:480   */\n      dup6\n        /* \"#utility.yul\":464:470   */\n      dup3\n        /* \"#utility.yul\":453:462   */\n      dup7\n        /* \"#utility.yul\":449:471   */\n      add\n        /* \"#utility.yul\":428:481   */\n      tag_56\n      jump\t// in\n    tag_64:\n        /* \"#utility.yul\":418:481   */\n      swap3\n      pop\n        /* \"#utility.yul\":374:491   */\n      pop\n        /* \"#utility.yul\":530:532   */\n      0x20\n        /* \"#utility.yul\":556:609   */\n      tag_65\n        /* \"#utility.yul\":601:608   */\n      dup6\n        /* \"#utility.yul\":592:598   */\n      dup3\n        /* \"#utility.yul\":581:590   */\n      dup7\n        /* \"#utility.yul\":577:599   */\n      add\n        /* \"#utility.yul\":556:609   */\n      tag_56\n      jump\t// in\n    tag_65:\n        /* \"#utility.yul\":546:609   */\n      swap2\n      pop\n        /* \"#utility.yul\":501:619   */\n      pop\n        /* \"#utility.yul\":152:626   */\n      swap3\n      pop\n      swap3\n      swap1\n      pop\n      jump\t// out\n        /* \"#utility.yul\":632:998   */\n    tag_66:\n        /* \"#utility.yul\":774:777   */\n      0x00\n        /* \"#utility.yul\":795:862   */\n      tag_68\n        /* \"#utility.yul\":859:861   */\n      0x1c\n        /* \"#utility.yul\":854:857   */\n      dup4\n        /* \"#utility.yul\":795:862   */\n      tag_69\n      jump\t// in\n    tag_68:\n        /* \"#utility.yul\":788:862   */\n      swap2\n      pop\n        /* \"#utility.yul\":871:964   */\n      tag_70\n        /* \"#utility.yul\":960:963   */\n      dup3\n        /* \"#utility.yul\":871:964   */\n      tag_71\n      jump\t// in\n    tag_70:\n        /* \"#utility.yul\":989:991   */\n      0x20\n        /* \"#utility.yul\":984:987   */\n      dup3\n        /* \"#utility.yul\":980:992   */\n      add\n        /* \"#utility.yul\":973:992   */\n      swap1\n      pop\n        /* \"#utility.yul\":632:998   */\n      swap2\n      swap1\n      pop\n      jump\t// out\n        /* \"#utility.yul\":1004:1122   */\n    tag_72:\n        /* \"#utility.yul\":1091:1115   */\n      tag_74\n        /* \"#utility.yul\":1109:1114   */\n      dup2\n        /* \"#utility.yul\":1091:1115   */\n      tag_75\n      jump\t// in\n    tag_74:\n        /* \"#utility.yul\":1086:1089   */\n      dup3\n        /* \"#utility.yul\":1079:1116   */\n      mstore\n        /* \"#utility.yul\":1004:1122   */\n      pop\n      pop\n      jump\t// out\n        /* \"#utility.yul\":1128:1547   */\n    tag_43:\n        /* \"#utility.yul\":1294:1298   */\n      0x00\n        /* \"#utility.yul\":1332:1334   */\n      0x20\n        /* \"#utility.yul\":1321:1330   */\n      dup3\n        /* \"#utility.yul\":1317:1335   */\n      add\n        /* \"#utility.yul\":1309:1335   */\n      swap1\n      pop\n        /* \"#utility.yul\":1381:1390   */\n      dup2\n        /* \"#utility.yul\":1375:1379   */\n      dup2\n        /* \"#utility.yul\":1371:1391   */\n      sub\n        /* \"#utility.yul\":1367:1368   */\n      0x00\n        /* \"#utility.yul\":1356:1365   */\n      dup4\n        /* \"#utility.yul\":1352:1369   */\n      add\n        /* \"#utility.yul\":1345:1392   */\n      mstore\n        /* \"#utility.yul\":1409:1540   */\n      tag_77\n        /* \"#utility.yul\":1535:1539   */\n      dup2\n        /* \"#utility.yul\":1409:1540   */\n      tag_66\n      jump\t// in\n    tag_77:\n        /* \"#utility.yul\":1401:1540   */\n      swap1\n      pop\n        /* \"#utility.yul\":1128:1547   */\n      swap2\n      swap1\n      pop\n      jump\t// out\n        /* \"#utility.yul\":1553:1775   */\n    tag_15:\n        /* \"#utility.yul\":1646:1650   */\n      0x00\n        /* \"#utility.yul\":1684:1686   */\n      0x20\n        /* \"#utility.yul\":1673:1682   */\n      dup3\n        /* \"#utility.yul\":1669:1687   */\n      add\n        /* \"#utility.yul\":1661:1687   */\n      swap1\n      pop\n        /* \"#utility.yul\":1697:1768   */\n      tag_79\n        /* \"#utility.yul\":1765:1766   */\n      0x00\n        /* \"#utility.yul\":1754:1763   */\n      dup4\n        /* \"#utility.yul\":1750:1767   */\n      add\n        /* \"#utility.yul\":1741:1747   */\n      dup5\n        /* \"#utility.yul\":1697:1768   */\n      tag_72\n      jump\t// in\n    tag_79:\n        /* \"#utility.yul\":1553:1775   */\n      swap3\n      swap2\n      pop\n      pop\n      jump\t// out\n        /* \"#utility.yul\":1862:2031   */\n    tag_69:\n        /* \"#utility.yul\":1946:1957   */\n      0x00\n        /* \"#utility.yul\":1980:1986   */\n      dup3\n        /* \"#utility.yul\":1975:1978   */\n      dup3\n        /* \"#utility.yul\":1968:1987   */\n      mstore\n        /* \"#utility.yul\":2020:2024   */\n      0x20\n        /* \"#utility.yul\":2015:2018   */\n      dup3\n        /* \"#utility.yul\":2011:2025   */\n      add\n        /* \"#utility.yul\":1996:2025   */\n      swap1\n      pop\n        /* \"#utility.yul\":1862:2031   */\n      swap3\n      swap2\n      pop\n      pop\n      jump\t// out\n        /* \"#utility.yul\":2037:2342   */\n    tag_45:\n        /* \"#utility.yul\":2077:2080   */\n      0x00\n        /* \"#utility.yul\":2096:2116   */\n      tag_84\n        /* \"#utility.yul\":2114:2115   */\n      dup3\n        /* \"#utility.yul\":2096:2116   */\n      tag_75\n      jump\t// in\n    tag_84:\n        /* \"#utility.yul\":2091:2116   */\n      swap2\n      pop\n        /* \"#utility.yul\":2130:2150   */\n      tag_85\n        /* \"#utility.yul\":2148:2149   */\n      dup4\n        /* \"#utility.yul\":2130:2150   */\n      tag_75\n      jump\t// in\n    tag_85:\n        /* \"#utility.yul\":2125:2150   */\n      swap3\n      pop\n        /* \"#utility.yul\":2284:2285   */\n      dup3\n        /* \"#utility.yul\":2216:2282   */\n      0xffffffffffffffffffffffffffffffffffffffffffffffffffffffffffffffff\n        /* \"#utility.yul\":2212:2286   */\n      sub\n        /* \"#utility.yul\":2209:2210   */\n      dup3\n        /* \"#utility.yul\":2206:2287   */\n      gt\n        /* \"#utility.yul\":2203:2310   */\n      iszero\n      tag_86\n      jumpi\n        /* \"#utility.yul\":2290:2308   */\n      tag_87\n      tag_88\n      jump\t// in\n    tag_87:\n        /* \"#utility.yul\":2203:2310   */\n    tag_86:\n        /* \"#utility.yul\":2334:2335   */\n      dup3\n        /* \"#utility.yul\":2331:2332   */\n      dup3\n        /* \"#utility.yul\":2327:2336   */\n      add\n        /* \"#utility.yul\":2320:2336   */\n      swap1\n      pop\n        /* \"#utility.yul\":2037:2342   */\n      swap3\n      swap2\n      pop\n      pop\n      jump\t// out\n        /* \"#utility.yul\":2348:2533   */\n    tag_54:\n        /* \"#utility.yul\":2388:2389   */\n      0x00\n        /* \"#utility.yul\":2405:2425   */\n      tag_90\n        /* \"#utility.yul\":2423:2424   */\n      dup3\n        /* \"#utility.yul\":2405:2425   */\n      tag_75\n      jump\t// in\n    tag_90:\n        /* \"#utility.yul\":2400:2425   */\n      swap2\n      pop\n        /* \"#utility.yul\":2439:2459   */\n      tag_91\n        /* \"#utility.yul\":2457:2458   */\n      dup4\n        /* \"#utility.yul\":2439:2459   */\n      tag_75\n      jump\t// in\n    tag_91:\n        /* \"#utility.yul\":2434:2459   */\n      swap3\n      pop\n        /* \"#utility.yul\":2478:2479   */\n      dup3\n        /* \"#utility.yul\":2468:2503   */\n      tag_92\n      jumpi\n        /* \"#utility.yul\":2483:2501   */\n      tag_93\n      tag_94\n      jump\t// in\n    tag_93:\n        /* \"#utility.yul\":2468:2503   */\n    tag_92:\n        /* \"#utility.yul\":2525:2526   */\n      dup3\n        /* \"#utility.yul\":2522:2523   */\n      dup3\n        /* \"#utility.yul\":2518:2527   */\n      div\n        /* \"#utility.yul\":2513:2527   */\n      swap1\n      pop\n        /* \"#utility.yul\":2348:2533   */\n      swap3\n      swap2\n      pop\n      pop\n      jump\t// out\n        /* \"#utility.yul\":2539:2887   */\n    tag_51:\n        /* \"#utility.yul\":2579:2586   */\n      0x00\n        /* \"#utility.yul\":2602:2622   */\n      tag_96\n        /* \"#utility.yul\":2620:2621   */\n      dup3\n        /* \"#utility.yul\":2602:2622   */\n      tag_75\n      jump\t// in\n    tag_96:\n        /* \"#utility.yul\":2597:2622   */\n      swap2\n      pop\n        /* \"#utility.yul\":2636:2656   */\n      tag_97\n        /* \"#utility.yul\":2654:2655   */\n      dup4\n        /* \"#utility.yul\":2636:2656   */\n      tag_75\n      jump\t// in\n    tag_97:\n        /* \"#utility.yul\":2631:2656   */\n      swap3\n      pop\n        /* \"#utility.yul\":2824:2825   */\n      dup2\n        /* \"#utility.yul\":2756:2822   */\n      0xffffffffffffffffffffffffffffffffffffffffffffffffffffffffffffffff\n        /* \"#utility.yul\":2752:2826   */\n      div\n        /* \"#utility.yul\":2749:2750   */\n      dup4\n        /* \"#utility.yul\":2746:2827   */\n      gt\n        /* \"#utility.yul\":2741:2742   */\n      dup3\n        /* \"#utility.yul\":2734:2743   */\n      iszero\n        /* \"#utility.yul\":2727:2744   */\n      iszero\n        /* \"#utility.yul\":2723:2828   */\n      and\n        /* \"#utility.yul\":2720:2851   */\n      iszero\n      tag_98\n      jumpi\n        /* \"#utility.yul\":2831:2849   */\n      tag_99\n      tag_88\n      jump\t// in\n    tag_99:\n        /* \"#utility.yul\":2720:2851   */\n    tag_98:\n        /* \"#utility.yul\":2879:2880   */\n      dup3\n        /* \"#utility.yul\":2876:2877   */\n      dup3\n        /* \"#utility.yul\":2872:2881   */\n      mul\n        /* \"#utility.yul\":2861:2881   */\n      swap1\n      pop\n        /* \"#utility.yul\":2539:2887   */\n      swap3\n      swap2\n      pop\n      pop\n      jump\t// out\n        /* \"#utility.yul\":2893:3084   */\n    tag_48:\n        /* \"#utility.yul\":2933:2937   */\n      0x00\n        /* \"#utility.yul\":2953:2973   */\n      tag_101\n        /* \"#utility.yul\":2971:2972   */\n      dup3\n        /* \"#utility.yul\":2953:2973   */\n      tag_75\n      jump\t// in\n    tag_101:\n        /* \"#utility.yul\":2948:2973   */\n      swap2\n      pop\n        /* \"#utility.yul\":2987:3007   */\n      tag_102\n        /* \"#utility.yul\":3005:3006   */\n      dup4\n        /* \"#utility.yul\":2987:3007   */\n      tag_75\n      jump\t// in\n    tag_102:\n        /* \"#utility.yul\":2982:3007   */\n      swap3\n      pop\n        /* \"#utility.yul\":3026:3027   */\n      dup3\n        /* \"#utility.yul\":3023:3024   */\n      dup3\n        /* \"#utility.yul\":3020:3028   */\n      lt\n        /* \"#utility.yul\":3017:3051   */\n      iszero\n      tag_103\n      jumpi\n        /* \"#utility.yul\":3031:3049   */\n      tag_104\n      tag_88\n      jump\t// in\n    tag_104:\n        /* \"#utility.yul\":3017:3051   */\n    tag_103:\n        /* \"#utility.yul\":3076:3077   */\n      dup3\n        /* \"#utility.yul\":3073:3074   */\n      dup3\n        /* \"#utility.yul\":3069:3078   */\n      sub\n        /* \"#utility.yul\":3061:3078   */\n      swap1\n      pop\n        /* \"#utility.yul\":2893:3084   */\n      swap3\n      swap2\n      pop\n      pop\n      jump\t// out\n        /* \"#utility.yul\":3090:3167   */\n    tag_75:\n        /* \"#utility.yul\":3127:3134   */\n      0x00\n        /* \"#utility.yul\":3156:3161   */\n      dup2\n        /* \"#utility.yul\":3145:3161   */\n      swap1\n      pop\n        /* \"#utility.yul\":3090:3167   */\n      swap2\n      swap1\n      pop\n      jump\t// out\n        /* \"#utility.yul\":3173:3353   */\n    tag_88:\n        /* \"#utility.yul\":3221:3298   */\n      0x4e487b7100000000000000000000000000000000000000000000000000000000\n        /* \"#utility.yul\":3218:3219   */\n      0x00\n        /* \"#utility.yul\":3211:3299   */\n      mstore\n        /* \"#utility.yul\":3318:3322   */\n      0x11\n        /* \"#utility.yul\":3315:3316   */\n      0x04\n        /* \"#utility.yul\":3308:3323   */\n      mstore\n        /* \"#utility.yul\":3342:3346   */\n      0x24\n        /* \"#utility.yul\":3339:3340   */\n      0x00\n        /* \"#utility.yul\":3332:3347   */\n      revert\n        /* \"#utility.yul\":3359:3539   */\n    tag_94:\n        /* \"#utility.yul\":3407:3484   */\n      0x4e487b7100000000000000000000000000000000000000000000000000000000\n        /* \"#utility.yul\":3404:3405   */\n      0x00\n        /* \"#utility.yul\":3397:3485   */\n      mstore\n        /* \"#utility.yul\":3504:3508   */\n      0x12\n        /* \"#utility.yul\":3501:3502   */\n      0x04\n        /* \"#utility.yul\":3494:3509   */\n      mstore\n        /* \"#utility.yul\":3528:3532   */\n      0x24\n        /* \"#utility.yul\":3525:3526   */\n      0x00\n        /* \"#utility.yul\":3518:3533   */\n      revert\n        /* \"#utility.yul\":3668:3785   */\n    tag_63:\n        /* \"#utility.yul\":3777:3778   */\n      0x00\n        /* \"#utility.yul\":3774:3775   */\n      dup1\n        /* \"#utility.yul\":3767:3779   */\n      revert\n        /* \"#utility.yul\":3791:3969   */\n    tag_71:\n        /* \"#utility.yul\":3931:3961   */\n      0x4e756d31206d7573742062652067726561746572207468616e20313000000000\n        /* \"#utility.yul\":3927:3928   */\n      0x00\n        /* \"#utility.yul\":3919:3925   */\n      dup3\n        /* \"#utility.yul\":3915:3929   */\n      add\n        /* \"#utility.yul\":3908:3962   */\n      mstore\n        /* \"#utility.yul\":3791:3969   */\n      pop\n      jump\t// out\n        /* \"#utility.yul\":3975:4097   */\n    tag_59:\n        /* \"#utility.yul\":4048:4072   */\n      tag_113\n        /* \"#utility.yul\":4066:4071   */\n      dup2\n        /* \"#utility.yul\":4048:4072   */\n      tag_75\n      jump\t// in\n    tag_113:\n        /* \"#utility.yul\":4041:4046   */\n      dup2\n        /* \"#utility.yul\":4038:4073   */\n      eq\n        /* \"#utility.yul\":4028:4091   */\n      tag_114\n      jumpi\n        /* \"#utility.yul\":4087:4088   */\n      0x00\n        /* \"#utility.yul\":4084:4085   */\n      dup1\n        /* \"#utility.yul\":4077:4089   */\n      revert\n        /* \"#utility.yul\":4028:4091   */\n    tag_114:\n        /* \"#utility.yul\":3975:4097   */\n      pop\n      jump\t// out\n\n    auxdata: 0xa2646970667358221220bfbf024081bb38bc71cfa4a5e4c1e0146fc62a3ff6d2a860df7444f6524fe2e264736f6c63430008070033\n}\n",
				"bytecode": {
					"linkReferences": {},
					"object": "608060405234801561001057600080fd5b50610525806100206000396000f3fe608060405234801561001057600080fd5b50600436106100885760003560e01c8063a9936cd21161005b578063a9936cd214610101578063bbe562b01461011f578063dc68f2711461014f578063e00680521461016d57610088565b80634c4763ce1461008d57806354f363a3146100ab57806361cffce8146100c7578063900683d0146100e5575b600080fd5b61009561019d565b6040516100a29190610301565b60405180910390f35b6100c560048036038101906100c0919061026f565b6101a3565b005b6100cf6101fc565b6040516100dc9190610301565b60405180910390f35b6100ff60048036038101906100fa919061026f565b610202565b005b610109610218565b6040516101169190610301565b60405180910390f35b6101396004803603810190610134919061026f565b61021e565b6040516101469190610301565b60405180910390f35b610157610239565b6040516101649190610301565b60405180910390f35b6101876004803603810190610182919061026f565b61023f565b6040516101949190610301565b60405180910390f35b60025481565b600a82116101e6576040517f08c379a00000000000000000000000000000000000000000000000000000000081526004016101dd906102e1565b60405180910390fd5b80826101f2919061032d565b6000819055505050565b60005481565b808261020e919061040e565b6001819055505050565b60035481565b600080828461022d91906103b4565b90508091505092915050565b60015481565b600080828461024e9190610383565b90508091505092915050565b600081359050610269816104d8565b92915050565b60008060408385031215610286576102856104aa565b5b60006102948582860161025a565b92505060206102a58582860161025a565b9150509250929050565b60006102bc601c8361031c565b91506102c7826104af565b602082019050919050565b6102db81610442565b82525050565b600060208201905081810360008301526102fa816102af565b9050919050565b600060208201905061031660008301846102d2565b92915050565b600082825260208201905092915050565b600061033882610442565b915061034383610442565b9250827fffffffffffffffffffffffffffffffffffffffffffffffffffffffffffffffff038211156103785761037761044c565b5b828201905092915050565b600061038e82610442565b915061039983610442565b9250826103a9576103a861047b565b5b828204905092915050565b60006103bf82610442565b91506103ca83610442565b9250817fffffffffffffffffffffffffffffffffffffffffffffffffffffffffffffffff04831182151516156104035761040261044c565b5b828202905092915050565b600061041982610442565b915061042483610442565b9250828210156104375761043661044c565b5b828203905092915050565b6000819050919050565b7f4e487b7100000000000000000000000000000000000000000000000000000000600052601160045260246000fd5b7f4e487b7100000000000000000000000000000000000000000000000000000000600052601260045260246000fd5b600080fd5b7f4e756d31206d7573742062652067726561746572207468616e20313000000000600082015250565b6104e181610442565b81146104ec57600080fd5b5056fea2646970667358221220bfbf024081bb38bc71cfa4a5e4c1e0146fc62a3ff6d2a860df7444f6524fe2e264736f6c63430008070033",
					"opcodes": "PUSH1 0x80 PUSH1 0x40 MSTORE CALLVALUE DUP1 ISZERO PUSH2 0x10 JUMPI PUSH1 0x0 DUP1 REVERT JUMPDEST POP PUSH2 0x525 DUP1 PUSH2 0x20 PUSH1 0x0 CODECOPY PUSH1 0x0 RETURN INVALID PUSH1 0x80 PUSH1 0x40 MSTORE CALLVALUE DUP1 ISZERO PUSH2 0x10 JUMPI PUSH1 0x0 DUP1 REVERT JUMPDEST POP PUSH1 0x4 CALLDATASIZE LT PUSH2 0x88 JUMPI PUSH1 0x0 CALLDATALOAD PUSH1 0xE0 SHR DUP1 PUSH4 0xA9936CD2 GT PUSH2 0x5B JUMPI DUP1 PUSH4 0xA9936CD2 EQ PUSH2 0x101 JUMPI DUP1 PUSH4 0xBBE562B0 EQ PUSH2 0x11F JUMPI DUP1 PUSH4 0xDC68F271 EQ PUSH2 0x14F JUMPI DUP1 PUSH4 0xE0068052 EQ PUSH2 0x16D JUMPI PUSH2 0x88 JUMP JUMPDEST DUP1 PUSH4 0x4C4763CE EQ PUSH2 0x8D JUMPI DUP1 PUSH4 0x54F363A3 EQ PUSH2 0xAB JUMPI DUP1 PUSH4 0x61CFFCE8 EQ PUSH2 0xC7 JUMPI DUP1 PUSH4 0x900683D0 EQ PUSH2 0xE5 JUMPI JUMPDEST PUSH1 0x0 DUP1 REVERT JUMPDEST PUSH2 0x95 PUSH2 0x19D JUMP JUMPDEST PUSH1 0x40 MLOAD PUSH2 0xA2 SWAP2 SWAP1 PUSH2 0x301 JUMP JUMPDEST PUSH1 0x40 MLOAD DUP1 SWAP2 SUB SWAP1 RETURN JUMPDEST PUSH2 0xC5 PUSH1 0x4 DUP1 CALLDATASIZE SUB DUP2 ADD SWAP1 PUSH2 0xC0 SWAP2 SWAP1 PUSH2 0x26F JUMP JUMPDEST PUSH2 0x1A3 JUMP JUMPDEST STOP JUMPDEST PUSH2 0xCF PUSH2 0x1FC JUMP JUMPDEST PUSH1 0x40 MLOAD PUSH2 0xDC SWAP2 SWAP1 PUSH2 0x301 JUMP JUMPDEST PUSH1 0x40 MLOAD DUP1 SWAP2 SUB SWAP1 RETURN JUMPDEST PUSH2 0xFF PUSH1 0x4 DUP1 CALLDATASIZE SUB DUP2 ADD SWAP1 PUSH2 0xFA SWAP2 SWAP1 PUSH2 0x26F JUMP JUMPDEST PUSH2 0x202 JUMP JUMPDEST STOP JUMPDEST PUSH2 0x109 PUSH2 0x218 JUMP JUMPDEST PUSH1 0x40 MLOAD PUSH2 0x116 SWAP2 SWAP1 PUSH2 0x301 JUMP JUMPDEST PUSH1 0x40 MLOAD DUP1 SWAP2 SUB SWAP1 RETURN JUMPDEST PUSH2 0x139 PUSH1 0x4 DUP1 CALLDATASIZE SUB DUP2 ADD SWAP1 PUSH2 0x134 SWAP2 SWAP1 PUSH2 0x26F JUMP JUMPDEST PUSH2 0x21E JUMP JUMPDEST PUSH1 0x40 MLOAD PUSH2 0x146 SWAP2 SWAP1 PUSH2 0x301 JUMP JUMPDEST PUSH1 0x40 MLOAD DUP1 SWAP2 SUB SWAP1 RETURN JUMPDEST PUSH2 0x157 PUSH2 0x239 JUMP JUMPDEST PUSH1 0x40 MLOAD PUSH2 0x164 SWAP2 SWAP1 PUSH2 0x301 JUMP JUMPDEST PUSH1 0x40 MLOAD DUP1 SWAP2 SUB SWAP1 RETURN JUMPDEST PUSH2 0x187 PUSH1 0x4 DUP1 CALLDATASIZE SUB DUP2 ADD SWAP1 PUSH2 0x182 SWAP2 SWAP1 PUSH2 0x26F JUMP JUMPDEST PUSH2 0x23F JUMP JUMPDEST PUSH1 0x40 MLOAD PUSH2 0x194 SWAP2 SWAP1 PUSH2 0x301 JUMP JUMPDEST PUSH1 0x40 MLOAD DUP1 SWAP2 SUB SWAP1 RETURN JUMPDEST PUSH1 0x2 SLOAD DUP2 JUMP JUMPDEST PUSH1 0xA DUP3 GT PUSH2 0x1E6 JUMPI PUSH1 0x40 MLOAD PUSH32 0x8C379A000000000000000000000000000000000000000000000000000000000 DUP2 MSTORE PUSH1 0x4 ADD PUSH2 0x1DD SWAP1 PUSH2 0x2E1 JUMP JUMPDEST PUSH1 0x40 MLOAD DUP1 SWAP2 SUB SWAP1 REVERT JUMPDEST DUP1 DUP3 PUSH2 0x1F2 SWAP2 SWAP1 PUSH2 0x32D JUMP JUMPDEST PUSH1 0x0 DUP2 SWAP1 SSTORE POP POP POP JUMP JUMPDEST PUSH1 0x0 SLOAD DUP2 JUMP JUMPDEST DUP1 DUP3 PUSH2 0x20E SWAP2 SWAP1 PUSH2 0x40E JUMP JUMPDEST PUSH1 0x1 DUP2 SWAP1 SSTORE POP POP POP JUMP JUMPDEST PUSH1 0x3 SLOAD DUP2 JUMP JUMPDEST PUSH1 0x0 DUP1 DUP3 DUP5 PUSH2 0x22D SWAP2 SWAP1 PUSH2 0x3B4 JUMP JUMPDEST SWAP1 POP DUP1 SWAP2 POP POP SWAP3 SWAP2 POP POP JUMP JUMPDEST PUSH1 0x1 SLOAD DUP2 JUMP JUMPDEST PUSH1 0x0 DUP1 DUP3 DUP5 PUSH2 0x24E SWAP2 SWAP1 PUSH2 0x383 JUMP JUMPDEST SWAP1 POP DUP1 SWAP2 POP POP SWAP3 SWAP2 POP POP JUMP JUMPDEST PUSH1 0x0 DUP2 CALLDATALOAD SWAP1 POP PUSH2 0x269 DUP2 PUSH2 0x4D8 JUMP JUMPDEST SWAP3 SWAP2 POP POP JUMP JUMPDEST PUSH1 0x0 DUP1 PUSH1 0x40 DUP4 DUP6 SUB SLT ISZERO PUSH2 0x286 JUMPI PUSH2 0x285 PUSH2 0x4AA JUMP JUMPDEST JUMPDEST PUSH1 0x0 PUSH2 0x294 DUP6 DUP3 DUP7 ADD PUSH2 0x25A JUMP JUMPDEST SWAP3 POP POP PUSH1 0x20 PUSH2 0x2A5 DUP6 DUP3 DUP7 ADD PUSH2 0x25A JUMP JUMPDEST SWAP2 POP POP SWAP3 POP SWAP3 SWAP1 POP JUMP JUMPDEST PUSH1 0x0 PUSH2 0x2BC PUSH1 0x1C DUP4 PUSH2 0x31C JUMP JUMPDEST SWAP2 POP PUSH2 0x2C7 DUP3 PUSH2 0x4AF JUMP JUMPDEST PUSH1 0x20 DUP3 ADD SWAP1 POP SWAP2 SWAP1 POP JUMP JUMPDEST PUSH2 0x2DB DUP2 PUSH2 0x442 JUMP JUMPDEST DUP3 MSTORE POP POP JUMP JUMPDEST PUSH1 0x0 PUSH1 0x20 DUP3 ADD SWAP1 POP DUP2 DUP2 SUB PUSH1 0x0 DUP4 ADD MSTORE PUSH2 0x2FA DUP2 PUSH2 0x2AF JUMP JUMPDEST SWAP1 POP SWAP2 SWAP1 POP JUMP JUMPDEST PUSH1 0x0 PUSH1 0x20 DUP3 ADD SWAP1 POP PUSH2 0x316 PUSH1 0x0 DUP4 ADD DUP5 PUSH2 0x2D2 JUMP JUMPDEST SWAP3 SWAP2 POP POP JUMP JUMPDEST PUSH1 0x0 DUP3 DUP3 MSTORE PUSH1 0x20 DUP3 ADD SWAP1 POP SWAP3 SWAP2 POP POP JUMP JUMPDEST PUSH1 0x0 PUSH2 0x338 DUP3 PUSH2 0x442 JUMP JUMPDEST SWAP2 POP PUSH2 0x343 DUP4 PUSH2 0x442 JUMP JUMPDEST SWAP3 POP DUP3 PUSH32 0xFFFFFFFFFFFFFFFFFFFFFFFFFFFFFFFFFFFFFFFFFFFFFFFFFFFFFFFFFFFFFFFF SUB DUP3 GT ISZERO PUSH2 0x378 JUMPI PUSH2 0x377 PUSH2 0x44C JUMP JUMPDEST JUMPDEST DUP3 DUP3 ADD SWAP1 POP SWAP3 SWAP2 POP POP JUMP JUMPDEST PUSH1 0x0 PUSH2 0x38E DUP3 PUSH2 0x442 JUMP JUMPDEST SWAP2 POP PUSH2 0x399 DUP4 PUSH2 0x442 JUMP JUMPDEST SWAP3 POP DUP3 PUSH2 0x3A9 JUMPI PUSH2 0x3A8 PUSH2 0x47B JUMP JUMPDEST JUMPDEST DUP3 DUP3 DIV SWAP1 POP SWAP3 SWAP2 POP POP JUMP JUMPDEST PUSH1 0x0 PUSH2 0x3BF DUP3 PUSH2 0x442 JUMP JUMPDEST SWAP2 POP PUSH2 0x3CA DUP4 PUSH2 0x442 JUMP JUMPDEST SWAP3 POP DUP2 PUSH32 0xFFFFFFFFFFFFFFFFFFFFFFFFFFFFFFFFFFFFFFFFFFFFFFFFFFFFFFFFFFFFFFFF DIV DUP4 GT DUP3 ISZERO ISZERO AND ISZERO PUSH2 0x403 JUMPI PUSH2 0x402 PUSH2 0x44C JUMP JUMPDEST JUMPDEST DUP3 DUP3 MUL SWAP1 POP SWAP3 SWAP2 POP POP JUMP JUMPDEST PUSH1 0x0 PUSH2 0x419 DUP3 PUSH2 0x442 JUMP JUMPDEST SWAP2 POP PUSH2 0x424 DUP4 PUSH2 0x442 JUMP JUMPDEST SWAP3 POP DUP3 DUP3 LT ISZERO PUSH2 0x437 JUMPI PUSH2 0x436 PUSH2 0x44C JUMP JUMPDEST JUMPDEST DUP3 DUP3 SUB SWAP1 POP SWAP3 SWAP2 POP POP JUMP JUMPDEST PUSH1 0x0 DUP2 SWAP1 POP SWAP2 SWAP1 POP JUMP JUMPDEST PUSH32 0x4E487B7100000000000000000000000000000000000000000000000000000000 PUSH1 0x0 MSTORE PUSH1 0x11 PUSH1 0x4 MSTORE PUSH1 0x24 PUSH1 0x0 REVERT JUMPDEST PUSH32 0x4E487B7100000000000000000000000000000000000000000000000000000000 PUSH1 0x0 MSTORE PUSH1 0x12 PUSH1 0x4 MSTORE PUSH1 0x24 PUSH1 0x0 REVERT JUMPDEST PUSH1 0x0 DUP1 REVERT JUMPDEST PUSH32 0x4E756D31206D7573742062652067726561746572207468616E20313000000000 PUSH1 0x0 DUP3 ADD MSTORE POP JUMP JUMPDEST PUSH2 0x4E1 DUP2 PUSH2 0x442 JUMP JUMPDEST DUP2 EQ PUSH2 0x4EC JUMPI PUSH1 0x0 DUP1 REVERT JUMPDEST POP JUMP INVALID LOG2 PUSH5 0x6970667358 0x22 SLT KECCAK256 0xBF 0xBF MUL BLOCKHASH DUP2 0xBB CODESIZE 0xBC PUSH18 0xCFA4A5E4C1E0146FC62A3FF6D2A860DF7444 0xF6 MSTORE 0x4F 0xE2 0xE2 PUSH5 0x736F6C6343 STOP ADDMOD SMOD STOP CALLER "
				},
				"gasEstimates": {
					"creation": {
						"codeDepositCost": "263400",
						"executionCost": "306",
						"totalCost": "263706"
					},
					"external": {
						"addition(uint256,uint256)": "infinite",
						"additionResult()": "2474",
						"division(uint256,uint256)": "infinite",
						"divisionResult()": "2429",
						"multiplication(uint256,uint256)": "infinite",
						"multiplicationResult()": "2430",
						"subtraction(uint256,uint256)": "infinite",
						"subtractionResult()": "2473"
					}
				},
				"methodIdentifiers": {
					"addition(uint256,uint256)": "54f363a3",
					"additionResult()": "61cffce8",
					"division(uint256,uint256)": "e0068052",
					"divisionResult()": "a9936cd2",
					"multiplication(uint256,uint256)": "bbe562b0",
					"multiplicationResult()": "4c4763ce",
					"subtraction(uint256,uint256)": "900683d0",
					"subtractionResult()": "dc68f271"
				}
			},
			"storageLayout": {
				"storage": [
					{
						"astId": 3,
						"contract": "contracts/Calculator.sol:Calculator",
						"label": "additionResult",
						"offset": 0,
						"slot": "0",
						"type": "t_uint256"
					},
					{
						"astId": 5,
						"contract": "contracts/Calculator.sol:Calculator",
						"label": "subtractionResult",
						"offset": 0,
						"slot": "1",
						"type": "t_uint256"
					},
					{
						"astId": 7,
						"contract": "contracts/Calculator.sol:Calculator",
						"label": "multiplicationResult",
						"offset": 0,
						"slot": "2",
						"type": "t_uint256"
					},
					{
						"astId": 9,
						"contract": "contracts/Calculator.sol:Calculator",
						"label": "divisionResult",
						"offset": 0,
						"slot": "3",
						"type": "t_uint256"
					}
				],
				"types": {
					"t_uint256": {
						"encoding": "inplace",
						"label": "uint256",
						"numberOfBytes": "32"
					}
				}
			},
			"userdoc": {
				"kind": "user",
				"methods": {},
				"version": 1
			}
		}
	}
}